{
  "_format": "hh3-artifact-1",
  "contractName": "Grabli",
  "sourceName": "contracts/Grabli.sol",
  "abi": [
    {
      "inputs": [],
      "stateMutability": "nonpayable",
      "type": "constructor"
    },
    {
      "inputs": [
        {
          "internalType": "address",
          "name": "owner",
          "type": "address"
        }
      ],
      "name": "OwnableInvalidOwner",
      "type": "error"
    },
    {
      "inputs": [
        {
          "internalType": "address",
          "name": "account",
          "type": "address"
        }
      ],
      "name": "OwnableUnauthorizedAccount",
      "type": "error"
    },
    {
      "inputs": [],
      "name": "ReentrancyGuardReentrantCall",
      "type": "error"
    },
    {
      "anonymous": false,
      "inputs": [
        {
          "indexed": true,
          "internalType": "uint256",
          "name": "gameId",
          "type": "uint256"
        },
        {
          "indexed": true,
          "internalType": "address",
          "name": "player",
          "type": "address"
        },
        {
          "indexed": true,
          "internalType": "address",
          "name": "previousHolder",
          "type": "address"
        },
        {
          "indexed": false,
          "internalType": "uint256",
          "name": "timestamp",
          "type": "uint256"
        },
        {
          "indexed": false,
          "internalType": "uint256",
          "name": "previousHolderSeconds",
          "type": "uint256"
        }
      ],
      "name": "Claimed",
      "type": "event"
    },
    {
      "anonymous": false,
      "inputs": [
        {
          "indexed": true,
          "internalType": "uint256",
          "name": "gameId",
          "type": "uint256"
        },
        {
          "indexed": false,
          "internalType": "string",
          "name": "prizeTitle",
          "type": "string"
        },
        {
          "indexed": false,
          "internalType": "uint256",
          "name": "startAt",
          "type": "uint256"
        },
        {
          "indexed": false,
          "internalType": "uint256",
          "name": "endAt",
          "type": "uint256"
        },
        {
          "indexed": false,
          "internalType": "string",
          "name": "sponsorName",
          "type": "string"
        }
      ],
      "name": "GameCreated",
      "type": "event"
    },
    {
      "anonymous": false,
      "inputs": [
        {
          "indexed": true,
          "internalType": "uint256",
          "name": "gameId",
          "type": "uint256"
        },
        {
          "indexed": true,
          "internalType": "address",
          "name": "winner",
          "type": "address"
        },
        {
          "indexed": false,
          "internalType": "uint256",
          "name": "totalSeconds",
          "type": "uint256"
        }
      ],
      "name": "GameFinished",
      "type": "event"
    },
    {
      "anonymous": false,
      "inputs": [
        {
          "indexed": true,
          "internalType": "address",
          "name": "previousOwner",
          "type": "address"
        },
        {
          "indexed": true,
          "internalType": "address",
          "name": "newOwner",
          "type": "address"
        }
      ],
      "name": "OwnershipTransferred",
      "type": "event"
    },
    {
      "inputs": [],
      "name": "DEFAULT_COOLDOWN",
      "outputs": [
        {
          "internalType": "uint256",
          "name": "",
          "type": "uint256"
        }
      ],
      "stateMutability": "view",
      "type": "function"
    },
    {
      "inputs": [
        {
          "internalType": "uint256",
          "name": "_gameId",
          "type": "uint256"
        }
      ],
      "name": "claim",
      "outputs": [],
      "stateMutability": "nonpayable",
      "type": "function"
    },
    {
      "inputs": [
        {
          "internalType": "uint256",
          "name": "_gameId",
          "type": "uint256"
        }
      ],
      "name": "closeGame",
      "outputs": [],
      "stateMutability": "nonpayable",
      "type": "function"
    },
    {
      "inputs": [
        {
          "internalType": "string",
          "name": "_prizeTitle",
          "type": "string"
        },
        {
          "internalType": "uint256",
          "name": "_prizeValue",
          "type": "uint256"
        },
        {
          "internalType": "string",
          "name": "_prizeCurrency",
          "type": "string"
        },
        {
          "internalType": "string",
          "name": "_prizeDescription",
          "type": "string"
        },
        {
          "internalType": "string",
          "name": "_sponsorName",
          "type": "string"
        },
        {
          "internalType": "string",
          "name": "_sponsorUrl",
          "type": "string"
        },
        {
          "internalType": "string",
          "name": "_sponsorLogo",
          "type": "string"
        },
        {
          "internalType": "uint256",
          "name": "_duration",
          "type": "uint256"
        },
        {
          "internalType": "uint256",
          "name": "_claimCooldown",
          "type": "uint256"
        }
      ],
      "name": "createGame",
      "outputs": [
        {
          "internalType": "uint256",
          "name": "",
          "type": "uint256"
        }
      ],
      "stateMutability": "nonpayable",
      "type": "function"
    },
    {
      "inputs": [
        {
          "internalType": "uint256",
          "name": "_gameId",
          "type": "uint256"
        }
      ],
      "name": "forceCloseGame",
      "outputs": [],
      "stateMutability": "nonpayable",
      "type": "function"
    },
    {
      "inputs": [],
      "name": "gameCount",
      "outputs": [
        {
          "internalType": "uint256",
          "name": "",
          "type": "uint256"
        }
      ],
      "stateMutability": "view",
      "type": "function"
    },
    {
      "inputs": [
        {
          "internalType": "uint256",
          "name": "",
          "type": "uint256"
        },
        {
          "internalType": "uint256",
          "name": "",
          "type": "uint256"
        }
      ],
      "name": "gamePlayers",
      "outputs": [
        {
          "internalType": "address",
          "name": "",
          "type": "address"
        }
      ],
      "stateMutability": "view",
      "type": "function"
    },
    {
      "inputs": [
        {
          "internalType": "uint256",
          "name": "",
          "type": "uint256"
        }
      ],
      "name": "games",
      "outputs": [
        {
          "internalType": "string",
          "name": "prizeTitle",
          "type": "string"
        },
        {
          "internalType": "uint256",
          "name": "prizeValue",
          "type": "uint256"
        },
        {
          "internalType": "string",
          "name": "prizeCurrency",
          "type": "string"
        },
        {
          "internalType": "string",
          "name": "prizeDescription",
          "type": "string"
        },
        {
          "internalType": "string",
          "name": "sponsorName",
          "type": "string"
        },
        {
          "internalType": "string",
          "name": "sponsorUrl",
          "type": "string"
        },
        {
          "internalType": "string",
          "name": "sponsorLogo",
          "type": "string"
        },
        {
          "internalType": "uint256",
          "name": "startAt",
          "type": "uint256"
        },
        {
          "internalType": "uint256",
          "name": "endAt",
          "type": "uint256"
        },
        {
          "internalType": "address",
          "name": "holder",
          "type": "address"
        },
        {
          "internalType": "uint256",
          "name": "sinceTs",
          "type": "uint256"
        },
        {
          "internalType": "bool",
          "name": "finished",
          "type": "bool"
        },
        {
          "internalType": "address",
          "name": "winner",
          "type": "address"
        },
        {
          "internalType": "uint256",
          "name": "winnerTotalSeconds",
          "type": "uint256"
        },
        {
          "internalType": "uint256",
          "name": "claimCooldown",
          "type": "uint256"
        }
      ],
      "stateMutability": "view",
      "type": "function"
    },
    {
      "inputs": [],
      "name": "getActiveGames",
      "outputs": [
        {
          "internalType": "uint256[]",
          "name": "",
          "type": "uint256[]"
        }
      ],
      "stateMutability": "view",
      "type": "function"
    },
    {
      "inputs": [
        {
          "internalType": "uint256",
          "name": "_gameId",
          "type": "uint256"
        }
      ],
      "name": "getGameDetails",
      "outputs": [
        {
          "internalType": "string",
          "name": "prizeTitle",
          "type": "string"
        },
        {
          "internalType": "uint256",
          "name": "prizeValue",
          "type": "uint256"
        },
        {
          "internalType": "string",
          "name": "prizeCurrency",
          "type": "string"
        },
        {
          "internalType": "string",
          "name": "prizeDescription",
          "type": "string"
        },
        {
          "internalType": "string",
          "name": "sponsorName",
          "type": "string"
        },
        {
          "internalType": "string",
          "name": "sponsorUrl",
          "type": "string"
        },
        {
          "internalType": "string",
          "name": "sponsorLogo",
          "type": "string"
        },
        {
          "internalType": "uint256",
          "name": "startAt",
          "type": "uint256"
        },
        {
          "internalType": "uint256",
          "name": "endAt",
          "type": "uint256"
        },
        {
          "internalType": "bool",
          "name": "finished",
          "type": "bool"
        }
      ],
      "stateMutability": "view",
      "type": "function"
    },
    {
      "inputs": [
        {
          "internalType": "uint256",
          "name": "_gameId",
          "type": "uint256"
        }
      ],
      "name": "getGamePlayers",
      "outputs": [
        {
          "internalType": "address[]",
          "name": "",
          "type": "address[]"
        }
      ],
      "stateMutability": "view",
      "type": "function"
    },
    {
      "inputs": [
        {
          "internalType": "uint256",
          "name": "_gameId",
          "type": "uint256"
        }
      ],
      "name": "getGameState",
      "outputs": [
        {
          "internalType": "string",
          "name": "prizeTitle",
          "type": "string"
        },
        {
          "internalType": "uint256",
          "name": "prizeValue",
          "type": "uint256"
        },
        {
          "internalType": "string",
          "name": "prizeCurrency",
          "type": "string"
        },
        {
          "internalType": "string",
          "name": "sponsorName",
          "type": "string"
        },
        {
          "internalType": "uint256",
          "name": "startAt",
          "type": "uint256"
        },
        {
          "internalType": "uint256",
          "name": "endAt",
          "type": "uint256"
        },
        {
          "internalType": "address",
          "name": "holder",
          "type": "address"
        },
        {
          "internalType": "uint256",
          "name": "currentHolderSeconds",
          "type": "uint256"
        },
        {
          "internalType": "bool",
          "name": "finished",
          "type": "bool"
        },
        {
          "internalType": "address",
          "name": "winner",
          "type": "address"
        }
      ],
      "stateMutability": "view",
      "type": "function"
    },
    {
      "inputs": [
        {
          "internalType": "uint256",
          "name": "_gameId",
          "type": "uint256"
        }
      ],
      "name": "getLeaderboard",
      "outputs": [
        {
          "internalType": "address[]",
          "name": "players",
          "type": "address[]"
        },
        {
          "internalType": "uint256[]",
          "name": "totalSeconds",
          "type": "uint256[]"
        }
      ],
      "stateMutability": "view",
      "type": "function"
    },
    {
      "inputs": [
        {
          "internalType": "uint256",
          "name": "_gameId",
          "type": "uint256"
        },
        {
          "internalType": "address",
          "name": "_player",
          "type": "address"
        }
      ],
      "name": "getPlayerStats",
      "outputs": [
        {
          "internalType": "uint256",
          "name": "totalSeconds",
          "type": "uint256"
        },
        {
          "internalType": "uint256",
          "name": "lastClaimTs",
          "type": "uint256"
        },
        {
          "internalType": "uint256",
          "name": "claimCount",
          "type": "uint256"
        }
      ],
      "stateMutability": "view",
      "type": "function"
    },
    {
      "inputs": [
        {
          "internalType": "uint256",
          "name": "",
          "type": "uint256"
        },
        {
          "internalType": "address",
          "name": "",
          "type": "address"
        }
      ],
      "name": "hasPlayed",
      "outputs": [
        {
          "internalType": "bool",
          "name": "",
          "type": "bool"
        }
      ],
      "stateMutability": "view",
      "type": "function"
    },
    {
      "inputs": [],
      "name": "owner",
      "outputs": [
        {
          "internalType": "address",
          "name": "",
          "type": "address"
        }
      ],
      "stateMutability": "view",
      "type": "function"
    },
    {
      "inputs": [
        {
          "internalType": "uint256",
          "name": "",
          "type": "uint256"
        },
        {
          "internalType": "address",
          "name": "",
          "type": "address"
        }
      ],
      "name": "playerStats",
      "outputs": [
        {
          "internalType": "uint256",
          "name": "totalSeconds",
          "type": "uint256"
        },
        {
          "internalType": "uint256",
          "name": "lastClaimTs",
          "type": "uint256"
        },
        {
          "internalType": "uint256",
          "name": "claimCount",
          "type": "uint256"
        }
      ],
      "stateMutability": "view",
      "type": "function"
    },
    {
      "inputs": [],
      "name": "renounceOwnership",
      "outputs": [],
      "stateMutability": "nonpayable",
      "type": "function"
    },
    {
      "inputs": [
        {
          "internalType": "address",
          "name": "newOwner",
          "type": "address"
        }
      ],
      "name": "transferOwnership",
      "outputs": [],
      "stateMutability": "nonpayable",
      "type": "function"
    }
  ],
  "bytecode": "0x6080806040523461007c573315610067575f8054336001600160a01b03198216811783556040519290916001600160a01b0316907f8be0079c531659141344cd1fd0a4f28419497f9722a3daafe3b4186f6b6457e09080a36001805561208b90816100818239f35b631e4fbdf760e01b81525f6004820152602490fd5b5f80fdfe60806040526004361015610011575f80fd5b5f3560e01c80630ba76d5f14611b31578063117a5b90146119d557806315a40f49146119545780631b31abda146118485780631b76929c146117825780632d6ef310146115a1578063379607f5146112715780634d1975b41461125457806351af1b7a146111ef57806366ccf9591461112d578063715018a6146110d6578063827059ff146110bb5780638da5cb5b14611094578063a34b46fe14610f36578063d82ceb8814610eed578063dfefef9f14610e9d578063e570f7821461029f578063f2fde38b146102135763ffde0c74146100ea575f80fd5b3461020f57602036600319011261020f576004355f52600260205261018060405f205f9060018060a01b03806009830154169182151580610200575b6101d0575b60018101549360078201549360088301546101a1600b8501549461019361015182611d29565b9961016a600461016360028601611d29565b9401611d29565b926040519c8d9c8d610140908181520190611dca565b9160208d01528b820360408d0152611dca565b9089820360608b0152611dca565b95608088015260a087015260c086015260e085015260ff8116151561010085015260081c166101208301520390f35b925060088301548042105f146101f757506101f1425b600a85015490611fa7565b9261012b565b6101f1906101e6565b5060ff600b8201541615610126565b5f80fd5b3461020f57602036600319011261020f576004356001600160a01b038181169182900361020f57610242611f0b565b8115610287575f54826bffffffffffffffffffffffff60a01b8216175f55167f8be0079c531659141344cd1fd0a4f28419497f9722a3daafe3b4186f6b6457e05f80a3005b604051631e4fbdf760e01b81525f6004820152602490fd5b3461020f5761012036600319011261020f576004356001600160401b03811161020f576102d0903690600401611eb6565b6044356001600160401b03811161020f576102ef903690600401611eb6565b906064356001600160401b03811161020f5761030f903690600401611eb6565b916084356001600160401b03811161020f5761032f903690600401611eb6565b60a4356001600160401b03811161020f5761034e903690600401611eb6565b9060c4356001600160401b03811161020f5761036e903690600401611eb6565b92610377611f0b565b60e43515610e5857845115610e1c575f9390865b60065486101561055857855f52600260205260405f209660ff600b890154166105485760098801546001600160a01b031680610510575b505f935f96885f52600460205260405f209660405180988991602082549182815201915f5260205f20905f905b8082106104ee5750505090610405910389611d08565b5f5b8851811015610460576001600160a01b03610422828b611ff8565b51168b5f52600360205260405f20815f5260205260405f20548b8111610453575b505061044e90611f36565b610407565b9a50975061044e8d610443565b50600b8b0180546001600160a81b031916600889901b610100600160a81b031617600117905593999298919790965092946104e393919283917ff5d92df6ae1a0b46d0a0c57c2e1da0d75d7591d2804ad086cb1e27ba67de7aaf9160209190600c8101869055426008909101556040519485526001600160a01b031693a3611f36565b94959391929361038b565b82546001600160a01b03168452602090930192600192830192909101906103ef565b61051e600a8a015442611fa7565b90885f52600360205260405f20905f5260205261054060405f20918254611f58565b9055886103c2565b956104e391975094939294611f36565b6006549550909161056886611f36565b60065561057760e43542611f58565b94610104358015610e1357925b604051946101e086018681106001600160401b03821117610a245760405289865260243560208701526040860152606085015284608085015260a084015260c08301524260e0830152836101008301525f6101208301525f6101408301525f6101608301525f6101808301525f6101a08301526101c0820152835f52600260205260405f209080518051906001600160401b038211610a245781906106298554611cd0565b601f8111610dc6575b50602090601f8311600114610d5e575f92610d53575b50508160011b915f199060031b1c19161782555b6020810151600183015560408101518051906001600160401b038211610a2457819061068b6002860154611cd0565b601f8111610d03575b50602090601f8311600114610c95575f92610c8a575b50508160011b915f199060031b1c19161760028301555b60608101518051906001600160401b038211610a245781906106e66003860154611cd0565b601f8111610c3a575b50602090601f8311600114610bcf575f92610bc4575b50508160011b915f199060031b1c19161760038301555b60808101518051906001600160401b038211610a245781906107416004860154611cd0565b601f8111610b74575b50602090601f8311600114610b09575f92610afe575b50508160011b915f199060031b1c19161760048301555b60a08101518051906001600160401b038211610a2457819061079c6005860154611cd0565b601f8111610aae575b50602090601f8311600114610a43575f92610a38575b50508160011b915f199060031b1c19161760058301555b60c08101518051906001600160401b038211610a24576107f56006850154611cd0565b601f81116109e0575b50918695939160209895938990601f8311600114610942576101c06109149794847f0dce9ed734be4df5cf8e2431063f9d0750ad36bd0aef7f87963e1e6b9d62468d9a989561092c9895600d955f92610937575b50508160011b915f199060031b1c19161760068501555b60e081015160078501556101008101516008808601919091556101208201516009860180546001600160a01b039092166001600160a01b0319909216919091179055610140820151600a860155610160820151600b86018054610180850151610100600160a81b03941b9390931691151560ff166001600160a81b0319909316929092171790556101a0810151600c8501550151910155604051948594608086526080860190611dca565b91428a86015260408501528382036060850152611dca565b0390a2604051908152f35b015190508f80610852565b90600685015f528a5f20915f5b601f19851681106109c65750610914979460018561092c9895600d956101c0957f0dce9ed734be4df5cf8e2431063f9d0750ad36bd0aef7f87963e1e6b9d62468d9e9c99601f198116106109ae575b505050811b016006850155610869565b01515f1960f88460031b161c191690558f808061099e565b8183015184558b9a50600190930192918c01918c0161094f565b600685015f5260205f20601f840160051c810160208510610a1d575b601f830160051c82018110610a125750506107fe565b5f81556001016109fc565b50806109fc565b634e487b7160e01b5f52604160045260245ffd5b0151905088806107bb565b600586015f908152602081209350601f198516905b818110610a965750908460019594939210610a7e575b505050811b0160058301556107d2565b01515f1960f88460031b161c19169055888080610a6e565b92936020600181928786015181550195019301610a58565b909150600585015f5260205f20601f840160051c810160208510610af7575b90849392915b601f830160051c82018110610ae95750506107a5565b5f8155859450600101610ad3565b5080610acd565b015190508880610760565b600486015f908152602081209350601f198516905b818110610b5c5750908460019594939210610b44575b505050811b016004830155610777565b01515f1960f88460031b161c19169055888080610b34565b92936020600181928786015181550195019301610b1e565b909150600485015f5260205f20601f840160051c810160208510610bbd575b90849392915b601f830160051c82018110610baf57505061074a565b5f8155859450600101610b99565b5080610b93565b015190508880610705565b600386015f908152602081209350601f198516905b818110610c225750908460019594939210610c0a575b505050811b01600383015561071c565b01515f1960f88460031b161c19169055888080610bfa565b92936020600181928786015181550195019301610be4565b909150600385015f5260205f20601f840160051c810160208510610c83575b90849392915b601f830160051c82018110610c755750506106ef565b5f8155859450600101610c5f565b5080610c59565b0151905088806106aa565b9250600285015f5260205f20905f935b601f1984168510610ce8576001945083601f19811610610cd0575b505050811b0160028301556106c1565b01515f1960f88460031b161c19169055888080610cc0565b81810151835560209485019460019093019290910190610ca5565b909150600285015f5260205f20601f840160051c810160208510610d4c575b90849392915b601f830160051c82018110610d3e575050610694565b5f8155859450600101610d28565b5080610d22565b015190508880610648565b9250845f5260205f20905f935b601f1984168510610dab576001945083601f19811610610d93575b505050811b01825561065c565b01515f1960f88460031b161c19169055888080610d86565b81810151835560209485019460019093019290910190610d6b565b909150845f5260205f20601f840160051c810160208510610e0c575b90849392915b601f830160051c82018110610dfe575050610632565b5f8155859450600101610de8565b5080610de2565b50600a92610584565b60405162461bcd60e51b8152602060048201526014602482015273141c9a5e99481d1a5d1b19481c995c5d5a5c995960621b6044820152606490fd5b60405162461bcd60e51b815260206004820152601f60248201527f4475726174696f6e206d7573742062652067726561746572207468616e2030006044820152606490fd5b3461020f57604036600319011261020f576024356004355f52600460205260405f20805482101561020f57602091610ed491611e8d565b905460405160039290921b1c6001600160a01b03168152f35b3461020f57604036600319011261020f57610f06611e77565b6004355f52600560205260405f209060018060a01b03165f52602052602060ff60405f2054166040519015158152f35b3461020f5760208060031936011261020f57600435805f526004825260405f20906040518083858295549384815201905f52855f20925f5b8782821061107557505050610f8592500383611d08565b610f8f8251612023565b905f5b835181101561104757610ffa906001600160a01b0380610fb28388611ff8565b511690845f526003885260405f20825f52885260405f205491855f526002895260405f20916009830154161480611038575b610fff575b50610ff48286611ff8565b52611f36565b610f92565b906110238260086110299401548042105f1461102f5750600a42915b015490611fa7565b90611f58565b87610fe9565b600a909161101b565b5060ff600b8201541615610fe4565b611064846110718786604051948594604086526040860190611e08565b9184830390850152611e44565b0390f35b85546001600160a01b0316845260019586019588955093019201610f6e565b3461020f575f36600319011261020f575f546040516001600160a01b039091168152602090f35b3461020f575f36600319011261020f576020604051600a8152f35b3461020f575f36600319011261020f576110ee611f0b565b5f80546001600160a01b0319811682556001600160a01b03167f8be0079c531659141344cd1fd0a4f28419497f9722a3daafe3b4186f6b6457e08280a3005b3461020f57604036600319011261020f57600435611149611e77565b90805f52600360205260405f209160018060a01b0380911692835f5260205260405f20928354925f52600260205260405f209160098301541614806111e0575b6111b9575b5061107160026001840154930154604051938493846040919493926060820195825260208201520152565b906110238260086111da9401548042105f1461102f5750600a015442611fa7565b8261118e565b5060ff600b8201541615611189565b3461020f57604036600319011261020f57611208611e77565b6004355f52600360205260405f209060018060a01b03165f5260205260405f20805461107160026001840154930154604051938493846040919493926060820195825260208201520152565b3461020f575f36600319011261020f576020600654604051908152f35b3461020f5760208060031936011261020f57600435600191600283541461158f5760028355815f526002815260405f20916112af6006548210611f65565b6007830154421061154a5760088301544210156115145760ff600b840154166114dc576009830180546001600160a01b03908116949033861461149757835f526003855260405f20335f52855260405f20878101805480611438575b505f93886113fc575b6002939495336bffffffffffffffffffffffff60a01b825416179055600a42910155429055016113448154611f36565b9055825f526005845260405f20335f52845260ff60405f20541615611399575b50604051924284528301527f3e356ee9071ea983e847cc7da7b8b224b8f44262f7c9ce77262ea0e854a5442c60403393a48055005b825f526004845260405f20805468010000000000000000811015610a24576113c5918882018155611e8d565b819291549060031b9133831b921b1916179055815f526005835260405f20335f52835260405f208560ff1982541617905585611364565b600293945061140f600a82015442611fa7565b875f526003895260405f208a5f52895260405f2061142e828254611f58565b9055949350611314565b600d85015461144691611f58565b4210611452578961130b565b60405162461bcd60e51b815260048101889052601b60248201527f436f6f6c646f776e20706572696f64206e6f7420656c617073656400000000006044820152606490fd5b60405162461bcd60e51b815260048101869052601a60248201527f596f752061726520616c72656164792074686520686f6c6465720000000000006044820152606490fd5b60405162461bcd60e51b815260048101839052601060248201526f11d85b59481a5cc8199a5b9a5cda195960821b6044820152606490fd5b60405162461bcd60e51b815260048101839052600e60248201526d11d85b59481a185cc8195b99195960921b6044820152606490fd5b60405162461bcd60e51b815260048101839052601860248201527f47616d6520686173206e6f7420737461727465642079657400000000000000006044820152606490fd5b604051633ee5aeb560e01b8152600490fd5b3461020f5760208060031936011261020f5760043590815f526002815260405f20916115d06006548210611f65565b60088301549182421061174557600b8401926115f060ff85541615611fb4565b60098501546001600160a01b0391908216908161170e575b50505f945f95845f526004845260405f20916040518084878296549384815201905f52875f20925f5b898282106116f65750505061164892500384611d08565b5f5b88845182101561169c5750846116608286611ff8565b5116875f526003875260405f20815f52875260405f20548a811161168f575b505061168a90611f36565b61164a565b9950925061168a8a61167f565b88546001600160a81b031916600885901b610100600160a81b0316176001179098555094957ff5d92df6ae1a0b46d0a0c57c2e1da0d75d7591d2804ad086cb1e27ba67de7aaf9591925090600c01556040519586521693a3005b85548a16845260019586019589955093019201611631565b600a87015461171c91611fa7565b90845f526003845260405f20905f52835261173c60405f20918254611f58565b90558580611608565b6064906040519062461bcd60e51b82526004820152601660248201527511d85b59481a185cc81b9bdd08195b991959081e595d60521b6044820152fd5b3461020f575f36600319011261020f576006545f805b82811061180c57506117a990612023565b905f805b8281106117ca576040516020808252819061107190820187611e44565b805f52600260205260ff600b60405f20015416156117f1575b6117ec90611f36565b6117ad565b906118048183610ff46117ec9488611ff8565b9190506117e3565b805f52600260205260ff600b60405f2001541615611833575b61182e90611f36565b611798565b9061184061182e91611f36565b919050611825565b3461020f57602036600319011261020f576004355f52600260205260405f2060018101549060078101546008820154600b83015460ff169061188984611d29565b9361189660028201611d29565b906118a360038201611d29565b6118af60048301611d29565b906118bc60058401611d29565b926006016118c990611d29565b93604051998a99610140808c528b016118e191611dca565b9060208b015289810360408b01526118f891611dca565b88810360608a015261190991611dca565b878103608089015261191a91611dca565b86810360a088015261192b91611dca565b85810360c087015261193c91611dca565b9260e085015261010084015215156101208301520390f35b3461020f5760208060031936011261020f576004355f526004815260405f20906040518083838295549384815201905f52835f20925f5b858282106119b6575050506119a292500383611d08565b611071604051928284938452830190611e08565b85546001600160a01b031684526001958601958895509301920161198b565b3461020f57602036600319011261020f576004355f52600260205260405f206119fd81611d29565b600182015491611a0f60028201611d29565b611a1b60038301611d29565b91611a2860048201611d29565b92611a3560058301611d29565b93611a4260068401611d29565b94600784015495600885015490600160a01b6001900360098701541692600a87015494600b88015496600c89015498600d015499604051809e819e6101e08084528301611a8e91611dca565b91602001528d8082039060400152611aa591611dca565b8c810360608e0152611ab691611dca565b8b810360808d0152611ac791611dca565b8a810360a08c0152611ad891611dca565b89810360c08b0152611ae991611dca565b60e089019790975261010088015261012087015261014086015260ff8116151561016086015260081c6001600160a01b03166101808501526101a08401526101c08301520390f35b3461020f5760208060031936011261020f5760043590611b4f611f0b565b815f526002815260405f2091611b686006548210611f65565b600b830191611b7b60ff84541615611fb4565b60098401546001600160a01b0390811680611c9a575b505f945f95845f526004845260405f20916040518084878296549384815201905f52875f20925f5b89828210611c8257505050611bd092500384611d08565b5f5b8351811015611c225784611be68286611ff8565b5116875f526003875260405f20815f52875260405f20548a8111611c15575b5050611c1090611f36565b611bd2565b99509250611c108a611c05565b5086546001600160a81b031916600883901b610100600160a81b03161760011790965593947ff5d92df6ae1a0b46d0a0c57c2e1da0d75d7591d2804ad086cb1e27ba67de7aaf94915086600c8201556008429101556040519586521693a3005b85548a16845260019586019589955093019201611bb9565b611ca8600a87015442611fa7565b90845f526003845260405f20905f528352611cc860405f20918254611f58565b905585611b91565b90600182811c92168015611cfe575b6020831014611cea57565b634e487b7160e01b5f52602260045260245ffd5b91607f1691611cdf565b90601f801991011681019081106001600160401b03821117610a2457604052565b9060405191825f825492611d3c84611cd0565b9081845260019485811690815f14611da75750600114611d67575b5050611d6592500383611d08565b565b909391505f52602090815f20935f915b818310611d8f575050611d6593508201015f80611d57565b85548884018501529485019487945091830191611d77565b915050611d6594506020925060ff191682840152151560051b8201015f80611d57565b91908251928382525f5b848110611df4575050825f602080949584010152601f8019910116010190565b602081830181015184830182015201611dd4565b9081518082526020808093019301915f5b828110611e27575050505090565b83516001600160a01b031685529381019392810192600101611e19565b9081518082526020808093019301915f5b828110611e63575050505090565b835185529381019392810192600101611e55565b602435906001600160a01b038216820361020f57565b8054821015611ea2575f5260205f2001905f90565b634e487b7160e01b5f52603260045260245ffd5b81601f8201121561020f578035906001600160401b038211610a245760405192611eea601f8401601f191660200185611d08565b8284526020838301011161020f57815f926020809301838601378301015290565b5f546001600160a01b03163303611f1e57565b60405163118cdaa760e01b8152336004820152602490fd5b5f198114611f445760010190565b634e487b7160e01b5f52601160045260245ffd5b91908201809211611f4457565b15611f6c57565b60405162461bcd60e51b815260206004820152601360248201527211d85b5948191bd95cc81b9bdd08195e1a5cdd606a1b6044820152606490fd5b91908203918211611f4457565b15611fbb57565b60405162461bcd60e51b815260206004820152601560248201527411d85b5948185b1c9958591e48199a5b9a5cda1959605a1b6044820152606490fd5b8051821015611ea25760209160051b010190565b6001600160401b038111610a245760051b60200190565b9061202d8261200c565b61203a6040519182611d08565b828152809261204b601f199161200c565b019060203691013756fea264697066735822122001cae10f95fe06637978b3d8c4a598227005f81a8629e98f518efdc8699e564d64736f6c63430008140033",
  "linkReferences": {},
  "deployedLinkReferences": {},
  "immutableReferences": {},
  "inputSourceName": "project/contracts/Grabli.sol",
  "buildInfoId": "solc-0_8_20-2b800ef2d3859cd87ff22ad4cf4064d763276493"
}