{
  "_format": "hh3-artifact-1",
  "contractName": "Grabli",
  "sourceName": "contracts/Grabli.sol",
  "abi": [
    {
      "inputs": [],
      "stateMutability": "nonpayable",
      "type": "constructor"
    },
    {
      "inputs": [
        {
          "internalType": "address",
          "name": "owner",
          "type": "address"
        }
      ],
      "name": "OwnableInvalidOwner",
      "type": "error"
    },
    {
      "inputs": [
        {
          "internalType": "address",
          "name": "account",
          "type": "address"
        }
      ],
      "name": "OwnableUnauthorizedAccount",
      "type": "error"
    },
    {
      "inputs": [],
      "name": "ReentrancyGuardReentrantCall",
      "type": "error"
    },
    {
      "anonymous": false,
      "inputs": [
        {
          "indexed": true,
          "internalType": "uint256",
          "name": "gameId",
          "type": "uint256"
        },
        {
          "indexed": true,
          "internalType": "address",
          "name": "player",
          "type": "address"
        },
        {
          "indexed": true,
          "internalType": "address",
          "name": "previousHolder",
          "type": "address"
        },
        {
          "indexed": false,
          "internalType": "uint256",
          "name": "timestamp",
          "type": "uint256"
        },
        {
          "indexed": false,
          "internalType": "uint256",
          "name": "previousHolderSeconds",
          "type": "uint256"
        }
      ],
      "name": "Claimed",
      "type": "event"
    },
    {
      "anonymous": false,
      "inputs": [
        {
          "indexed": true,
          "internalType": "uint256",
          "name": "gameId",
          "type": "uint256"
        },
        {
          "indexed": false,
          "internalType": "string",
          "name": "prizeTitle",
          "type": "string"
        },
        {
          "indexed": false,
          "internalType": "address",
          "name": "prizeToken",
          "type": "address"
        },
        {
          "indexed": false,
          "internalType": "uint256",
          "name": "prizeAmount",
          "type": "uint256"
        },
        {
          "indexed": false,
          "internalType": "address",
          "name": "sponsor",
          "type": "address"
        }
      ],
      "name": "GameCreated",
      "type": "event"
    },
    {
      "anonymous": false,
      "inputs": [
        {
          "indexed": true,
          "internalType": "uint256",
          "name": "gameId",
          "type": "uint256"
        },
        {
          "indexed": true,
          "internalType": "address",
          "name": "winner",
          "type": "address"
        },
        {
          "indexed": false,
          "internalType": "uint256",
          "name": "totalSeconds",
          "type": "uint256"
        }
      ],
      "name": "GameFinished",
      "type": "event"
    },
    {
      "anonymous": false,
      "inputs": [
        {
          "indexed": true,
          "internalType": "uint256",
          "name": "gameId",
          "type": "uint256"
        },
        {
          "indexed": false,
          "internalType": "address",
          "name": "prizeToken",
          "type": "address"
        },
        {
          "indexed": false,
          "internalType": "uint256",
          "name": "prizeAmount",
          "type": "uint256"
        },
        {
          "indexed": false,
          "internalType": "uint256",
          "name": "startAt",
          "type": "uint256"
        },
        {
          "indexed": false,
          "internalType": "uint256",
          "name": "endAt",
          "type": "uint256"
        }
      ],
      "name": "GameFunded",
      "type": "event"
    },
    {
      "anonymous": false,
      "inputs": [
        {
          "indexed": true,
          "internalType": "address",
          "name": "previousOwner",
          "type": "address"
        },
        {
          "indexed": true,
          "internalType": "address",
          "name": "newOwner",
          "type": "address"
        }
      ],
      "name": "OwnershipTransferred",
      "type": "event"
    },
    {
      "anonymous": false,
      "inputs": [
        {
          "indexed": true,
          "internalType": "uint256",
          "name": "gameId",
          "type": "uint256"
        },
        {
          "indexed": true,
          "internalType": "address",
          "name": "winner",
          "type": "address"
        },
        {
          "indexed": false,
          "internalType": "address",
          "name": "prizeToken",
          "type": "address"
        },
        {
          "indexed": false,
          "internalType": "uint256",
          "name": "amount",
          "type": "uint256"
        }
      ],
      "name": "PrizeClaimed",
      "type": "event"
    },
    {
      "inputs": [],
      "name": "DEFAULT_COOLDOWN",
      "outputs": [
        {
          "internalType": "uint256",
          "name": "",
          "type": "uint256"
        }
      ],
      "stateMutability": "view",
      "type": "function"
    },
    {
      "inputs": [
        {
          "internalType": "uint256",
          "name": "_gameId",
          "type": "uint256"
        }
      ],
      "name": "claim",
      "outputs": [],
      "stateMutability": "nonpayable",
      "type": "function"
    },
    {
      "inputs": [
        {
          "internalType": "uint256",
          "name": "_gameId",
          "type": "uint256"
        }
      ],
      "name": "closeGame",
      "outputs": [],
      "stateMutability": "nonpayable",
      "type": "function"
    },
    {
      "inputs": [
        {
          "internalType": "string",
          "name": "_prizeTitle",
          "type": "string"
        },
        {
          "internalType": "string",
          "name": "_prizeCurrency",
          "type": "string"
        },
        {
          "internalType": "string",
          "name": "_prizeDescription",
          "type": "string"
        },
        {
          "internalType": "address",
          "name": "_prizeToken",
          "type": "address"
        },
        {
          "internalType": "uint256",
          "name": "_prizeAmount",
          "type": "uint256"
        },
        {
          "internalType": "string",
          "name": "_sponsorName",
          "type": "string"
        },
        {
          "internalType": "string",
          "name": "_sponsorUrl",
          "type": "string"
        },
        {
          "internalType": "uint256",
          "name": "_duration",
          "type": "uint256"
        },
        {
          "internalType": "uint256",
          "name": "_claimCooldown",
          "type": "uint256"
        }
      ],
      "name": "createGame",
      "outputs": [
        {
          "internalType": "uint256",
          "name": "",
          "type": "uint256"
        }
      ],
      "stateMutability": "nonpayable",
      "type": "function"
    },
    {
      "inputs": [
        {
          "internalType": "uint256",
          "name": "_gameId",
          "type": "uint256"
        }
      ],
      "name": "forceCloseGame",
      "outputs": [],
      "stateMutability": "nonpayable",
      "type": "function"
    },
    {
      "inputs": [
        {
          "internalType": "uint256",
          "name": "_gameId",
          "type": "uint256"
        }
      ],
      "name": "fundGame",
      "outputs": [],
      "stateMutability": "nonpayable",
      "type": "function"
    },
    {
      "inputs": [],
      "name": "gameCount",
      "outputs": [
        {
          "internalType": "uint256",
          "name": "",
          "type": "uint256"
        }
      ],
      "stateMutability": "view",
      "type": "function"
    },
    {
      "inputs": [
        {
          "internalType": "uint256",
          "name": "",
          "type": "uint256"
        }
      ],
      "name": "gameDuration",
      "outputs": [
        {
          "internalType": "uint256",
          "name": "",
          "type": "uint256"
        }
      ],
      "stateMutability": "view",
      "type": "function"
    },
    {
      "inputs": [
        {
          "internalType": "uint256",
          "name": "",
          "type": "uint256"
        },
        {
          "internalType": "uint256",
          "name": "",
          "type": "uint256"
        }
      ],
      "name": "gamePlayers",
      "outputs": [
        {
          "internalType": "address",
          "name": "",
          "type": "address"
        }
      ],
      "stateMutability": "view",
      "type": "function"
    },
    {
      "inputs": [
        {
          "internalType": "uint256",
          "name": "",
          "type": "uint256"
        }
      ],
      "name": "games",
      "outputs": [
        {
          "internalType": "string",
          "name": "prizeTitle",
          "type": "string"
        },
        {
          "internalType": "string",
          "name": "prizeCurrency",
          "type": "string"
        },
        {
          "internalType": "string",
          "name": "prizeDescription",
          "type": "string"
        },
        {
          "internalType": "address",
          "name": "prizeToken",
          "type": "address"
        },
        {
          "internalType": "uint256",
          "name": "prizeAmount",
          "type": "uint256"
        },
        {
          "internalType": "address",
          "name": "sponsor",
          "type": "address"
        },
        {
          "internalType": "string",
          "name": "sponsorName",
          "type": "string"
        },
        {
          "internalType": "string",
          "name": "sponsorUrl",
          "type": "string"
        },
        {
          "internalType": "uint256",
          "name": "startAt",
          "type": "uint256"
        },
        {
          "internalType": "uint256",
          "name": "endAt",
          "type": "uint256"
        },
        {
          "internalType": "address",
          "name": "holder",
          "type": "address"
        },
        {
          "internalType": "uint256",
          "name": "sinceTs",
          "type": "uint256"
        },
        {
          "internalType": "bool",
          "name": "finished",
          "type": "bool"
        },
        {
          "internalType": "address",
          "name": "winner",
          "type": "address"
        },
        {
          "internalType": "uint256",
          "name": "winnerTotalSeconds",
          "type": "uint256"
        },
        {
          "internalType": "uint256",
          "name": "claimCooldown",
          "type": "uint256"
        }
      ],
      "stateMutability": "view",
      "type": "function"
    },
    {
      "inputs": [],
      "name": "getActiveGames",
      "outputs": [
        {
          "internalType": "uint256[]",
          "name": "",
          "type": "uint256[]"
        }
      ],
      "stateMutability": "view",
      "type": "function"
    },
    {
      "inputs": [
        {
          "internalType": "uint256",
          "name": "_gameId",
          "type": "uint256"
        }
      ],
      "name": "getGameDetails",
      "outputs": [
        {
          "internalType": "string",
          "name": "prizeTitle",
          "type": "string"
        },
        {
          "internalType": "string",
          "name": "prizeCurrency",
          "type": "string"
        },
        {
          "internalType": "string",
          "name": "prizeDescription",
          "type": "string"
        },
        {
          "internalType": "string",
          "name": "sponsorName",
          "type": "string"
        },
        {
          "internalType": "string",
          "name": "sponsorUrl",
          "type": "string"
        },
        {
          "internalType": "uint256",
          "name": "startAt",
          "type": "uint256"
        },
        {
          "internalType": "uint256",
          "name": "endAt",
          "type": "uint256"
        },
        {
          "internalType": "bool",
          "name": "finished",
          "type": "bool"
        },
        {
          "internalType": "address",
          "name": "prizeToken",
          "type": "address"
        },
        {
          "internalType": "uint256",
          "name": "prizeAmount",
          "type": "uint256"
        },
        {
          "internalType": "address",
          "name": "sponsor",
          "type": "address"
        }
      ],
      "stateMutability": "view",
      "type": "function"
    },
    {
      "inputs": [
        {
          "internalType": "uint256",
          "name": "_gameId",
          "type": "uint256"
        }
      ],
      "name": "getGamePlayers",
      "outputs": [
        {
          "internalType": "address[]",
          "name": "",
          "type": "address[]"
        }
      ],
      "stateMutability": "view",
      "type": "function"
    },
    {
      "inputs": [
        {
          "internalType": "uint256",
          "name": "_gameId",
          "type": "uint256"
        }
      ],
      "name": "getGameState",
      "outputs": [
        {
          "internalType": "string",
          "name": "prizeTitle",
          "type": "string"
        },
        {
          "internalType": "string",
          "name": "prizeCurrency",
          "type": "string"
        },
        {
          "internalType": "string",
          "name": "sponsorName",
          "type": "string"
        },
        {
          "internalType": "uint256",
          "name": "startAt",
          "type": "uint256"
        },
        {
          "internalType": "uint256",
          "name": "endAt",
          "type": "uint256"
        },
        {
          "internalType": "address",
          "name": "holder",
          "type": "address"
        },
        {
          "internalType": "uint256",
          "name": "currentHolderSeconds",
          "type": "uint256"
        },
        {
          "internalType": "bool",
          "name": "finished",
          "type": "bool"
        },
        {
          "internalType": "address",
          "name": "winner",
          "type": "address"
        },
        {
          "internalType": "address",
          "name": "prizeToken",
          "type": "address"
        },
        {
          "internalType": "uint256",
          "name": "prizeAmount",
          "type": "uint256"
        }
      ],
      "stateMutability": "view",
      "type": "function"
    },
    {
      "inputs": [
        {
          "internalType": "uint256",
          "name": "_gameId",
          "type": "uint256"
        }
      ],
      "name": "getLeaderboard",
      "outputs": [
        {
          "internalType": "address[]",
          "name": "players",
          "type": "address[]"
        },
        {
          "internalType": "uint256[]",
          "name": "totalSeconds",
          "type": "uint256[]"
        }
      ],
      "stateMutability": "view",
      "type": "function"
    },
    {
      "inputs": [
        {
          "internalType": "uint256",
          "name": "_gameId",
          "type": "uint256"
        },
        {
          "internalType": "address",
          "name": "_player",
          "type": "address"
        }
      ],
      "name": "getPlayerStats",
      "outputs": [
        {
          "internalType": "uint256",
          "name": "totalSeconds",
          "type": "uint256"
        },
        {
          "internalType": "uint256",
          "name": "lastClaimTs",
          "type": "uint256"
        },
        {
          "internalType": "uint256",
          "name": "claimCount",
          "type": "uint256"
        }
      ],
      "stateMutability": "view",
      "type": "function"
    },
    {
      "inputs": [
        {
          "internalType": "uint256",
          "name": "",
          "type": "uint256"
        },
        {
          "internalType": "address",
          "name": "",
          "type": "address"
        }
      ],
      "name": "hasPlayed",
      "outputs": [
        {
          "internalType": "bool",
          "name": "",
          "type": "bool"
        }
      ],
      "stateMutability": "view",
      "type": "function"
    },
    {
      "inputs": [],
      "name": "owner",
      "outputs": [
        {
          "internalType": "address",
          "name": "",
          "type": "address"
        }
      ],
      "stateMutability": "view",
      "type": "function"
    },
    {
      "inputs": [
        {
          "internalType": "uint256",
          "name": "",
          "type": "uint256"
        },
        {
          "internalType": "address",
          "name": "",
          "type": "address"
        }
      ],
      "name": "playerStats",
      "outputs": [
        {
          "internalType": "uint256",
          "name": "totalSeconds",
          "type": "uint256"
        },
        {
          "internalType": "uint256",
          "name": "lastClaimTs",
          "type": "uint256"
        },
        {
          "internalType": "uint256",
          "name": "claimCount",
          "type": "uint256"
        }
      ],
      "stateMutability": "view",
      "type": "function"
    },
    {
      "inputs": [],
      "name": "renounceOwnership",
      "outputs": [],
      "stateMutability": "nonpayable",
      "type": "function"
    },
    {
      "inputs": [
        {
          "internalType": "address",
          "name": "newOwner",
          "type": "address"
        }
      ],
      "name": "transferOwnership",
      "outputs": [],
      "stateMutability": "nonpayable",
      "type": "function"
    }
  ],
  "bytecode": "0x6080806040523461007c573315610067575f8054336001600160a01b03198216811783556040519290916001600160a01b0316907f8be0079c531659141344cd1fd0a4f28419497f9722a3daafe3b4186f6b6457e09080a36001805561249e90816100818239f35b631e4fbdf760e01b81525f6004820152602490fd5b5f80fdfe60806040526004361015610011575f80fd5b5f3560e01c80630ba76d5f14611ee0578063117a5b9014611d7d57806315a40f4914611cfc5780631b31abda14611bec5780631b76929c14611b265780632d6ef310146118585780632e55a7671461161a578063379607f5146112fe5780634d1975b4146112e157806351af1b7a1461127c57806366ccf959146111ba578063715018a614611163578063827059ff146111485780638da5cb5b1461112157806394c0d27b146104e7578063a34b46fe14610389578063d82ceb8814610340578063dfefef9f146102f0578063f2fde38b14610264578063f41fb1291461023a5763ffde0c7414610100575f80fd5b34610236576020366003190112610236576004355f908152600260205260408120600a8101546101a1926001600160a01b0391821680151580610227575b6101f7575b600884015492600985015492600c8601549082600388015416936004880154956101bd61016f8a6120e1565b996101af61018b6006610184600185016120e1565b93016120e1565b916040519d8e9d8e610160908181520190612182565b8d810360208f015290612182565b908b820360408d0152612182565b9760608a0152608089015260a088015260c087015260ff8116151560e087015260081c166101008501526101208401526101408301520390f35b905060098301548042105f1461021e5750610218425b600b8501549061239a565b90610143565b6102189061020d565b5060ff600c850154161561013e565b5f80fd5b34610236576020366003190112610236576004355f526006602052602060405f2054604051908152f35b34610236576020366003190112610236576004356001600160a01b0381811691829003610236576102936122c3565b81156102d8575f54826bffffffffffffffffffffffff60a01b8216175f55167f8be0079c531659141344cd1fd0a4f28419497f9722a3daafe3b4186f6b6457e05f80a3005b604051631e4fbdf760e01b81525f6004820152602490fd5b34610236576040366003190112610236576024356004355f52600460205260405f208054821015610236576020916103279161229a565b905460405160039290921b1c6001600160a01b03168152f35b346102365760403660031901126102365761035961222f565b6004355f52600560205260405f209060018060a01b03165f52602052602060ff60405f2054166040519015158152f35b346102365760208060031936011261023657600435805f526004825260405f20906040518083858295549384815201905f52855f20925f5b878282106104c8575050506103d8925003836120c0565b6103e28251612416565b905f5b835181101561049a5761044d906001600160a01b038061040583886123eb565b511690845f526003885260405f20825f52885260405f205491855f526002895260405f2091600a83015416148061048b575b610452575b5061044782866123eb565b526122ee565b6103e5565b9061047682600961047c9401548042105f146104825750600b42915b01549061239a565b9061236a565b8761043c565b600b909161046e565b5060ff600c8201541615610437565b6104b7846104c487866040519485946040865260408601906121c0565b91848303908501526121fc565b0390f35b85546001600160a01b03168452600195860195889550930192016103c1565b3461023657610120366003190112610236576004356001600160401b03811161023657610518903690600401612245565b6024356001600160401b03811161023657610537903690600401612245565b906044356001600160401b03811161023657610557903690600401612245565b916064356001600160a01b03811681036102365760a4356001600160401b0381116102365761058a903690600401612245565b9160c4356001600160401b038111610236576105aa903690600401612245565b946105b36122c3565b60e435156110dc578451156110a0575f959395935b6007548510156108a857845f52600260205260405f209560ff600c8801541661089b57600a8701546001600160a01b031680610863575b505f975f95875f52600460205260405f209560405180978891602082549182815201915f5260205f20905f905b80821061084157505050906106429103886120c0565b5f5b875181101561069e576001600160a01b0361065f828a6123eb565b51168a5f52600360205260405f20815f5260205260405f20548a8111610690575b505061068b906122ee565b610644565b909c50985061068b8d610680565b50600c8a0180546001600160a81b03191660088d901b610100600160a81b03161760011790559399929891979096939550919290600d810182905542600982015560038101546001600160a01b031680151580610834575b80610822575b610738575b5050604051908152610731926001600160a01b03169082905f8051602061244983398151915290602090a36122ee565b93956105c8565b60048281015460405163a9059cbb60e01b81526001600160a01b03881692810192909252602482015290602090829060449082905f905af18015610817576107319585935f80516020612449833981519152936020936107ea575b506003810154600490910154604080516001600160a01b03938416815260208101929092529183169186917f5a28f7f69afe229f92c7195829ae52541c6f4eeee5d4610d81b7abcdac51aa1e9190a3955050610701565b61080990843d8611610810575b61080181836120c0565b810190612352565b508e610793565b503d6107f7565b6040513d5f823e3d90fd5b506001600160a01b03851615156106fc565b50600482015415156106f6565b82546001600160a01b031684526020909301926001928301929091019061062c565b610871600b8901544261239a565b90875f52600360205260405f20905f5260205261089360405f2091825461236a565b9055886105ff565b95509593610731906122ee565b6007549450866108b7866122ee565b60075561010435801561109757925b60405194856102008101106001600160401b0361020088011117610d685761020086016040528886526020860152604085015260018060a01b038516606085015260843560808501523360a085015260c084015260e08301525f6101008301525f6101208301525f6101408301525f6101608301525f6101808301525f6101a08301525f6101c08301526101e0820152825f52600260205260405f209080518051906001600160401b038211610d685781906109828554612088565b601f811161104a575b50602090601f8311600114610fe2575f92610fd7575b50508160011b915f199060031b1c19161782555b60208101518051906001600160401b038211610d685781906109da6001860154612088565b601f8111610f87575b50602090601f8311600114610f19575f92610f0e575b50508160011b915f199060031b1c19161760018301555b60408101518051906001600160401b038211610d68578190610a356002860154612088565b601f8111610ebe575b50602090601f8311600114610e50575f92610e45575b50508160011b915f199060031b1c19161760028301555b60608101516003830180546001600160a01b039283166001600160a01b0319918216179091556080830151600485015560a083015160058501805491909316911617905560c08101518051906001600160401b038211610d68578190610ad46006860154612088565b601f8111610df5575b50602090601f8311600114610d87575f92610d7c575b50508160011b915f199060031b1c19161760068301555b60e08101518051906001600160401b038211610d6857610b2d6007850154612088565b601f8111610d24575b509160209693918695938890601f8311600114610c8a57610c579593837fbdc387c285ce6946f2bfa6c8951f07ac72352a0c578839b050df5a85afddf341989694600e946101e0945f92610c7f575b50508160011b915f199060031b1c19161760078501555b6101008101516008858101919091556101208201516009860155610140820151600a860180546001600160a01b039092166001600160a01b0319909216919091179055610160820151600b860155610180820151600c860180546101a0850151610100600160a81b03941b9390931691151560ff166001600160a81b0319909316929092171790556101c0810151600d8501550151910155845f526006875260e43560405f2055604051928392608084526080840190612182565b6001600160a01b039091168288015260843560408301523360608301520390a2604051908152f35b015190508d80610b85565b90600785015f52895f20915f5b601f1985168110610d0a575093600184600e946101e094610c579a987fbdc387c285ce6946f2bfa6c8951f07ac72352a0c578839b050df5a85afddf3419c9a98601f19811610610cf2575b505050811b016007850155610b9c565b01515f1960f88460031b161c191690558d8080610ce2565b8183015184558a9950600190930192918b01918b01610c97565b600785015f5260205f20601f840160051c810160208510610d61575b601f830160051c82018110610d56575050610b36565b5f8155600101610d40565b5080610d40565b634e487b7160e01b5f52604160045260245ffd5b015190508780610af3565b9250600685015f5260205f20905f935b601f1984168510610dda576001945083601f19811610610dc2575b505050811b016006830155610b0a565b01515f1960f88460031b161c19169055878080610db2565b81810151835560209485019460019093019290910190610d97565b909150600685015f5260205f20601f840160051c810160208510610e3e575b90849392915b601f830160051c82018110610e30575050610add565b5f8155859450600101610e1a565b5080610e14565b015190508780610a54565b9250600285015f5260205f20905f935b601f1984168510610ea3576001945083601f19811610610e8b575b505050811b016002830155610a6b565b01515f1960f88460031b161c19169055878080610e7b565b81810151835560209485019460019093019290910190610e60565b909150600285015f5260205f20601f840160051c810160208510610f07575b90849392915b601f830160051c82018110610ef9575050610a3e565b5f8155859450600101610ee3565b5080610edd565b0151905087806109f9565b9250600185015f5260205f20905f935b601f1984168510610f6c576001945083601f19811610610f54575b505050811b016001830155610a10565b01515f1960f88460031b161c19169055878080610f44565b81810151835560209485019460019093019290910190610f29565b909150600185015f5260205f20601f840160051c810160208510610fd0575b90849392915b601f830160051c82018110610fc25750506109e3565b5f8155859450600101610fac565b5080610fa6565b0151905087806109a1565b9250845f5260205f20905f935b601f198416851061102f576001945083601f19811610611017575b505050811b0182556109b5565b01515f1960f88460031b161c1916905587808061100a565b81810151835560209485019460019093019290910190610fef565b909150845f5260205f20601f840160051c810160208510611090575b90849392915b601f830160051c8201811061108257505061098b565b5f815585945060010161106c565b5080611066565b50600a926108c6565b60405162461bcd60e51b8152602060048201526014602482015273141c9a5e99481d1a5d1b19481c995c5d5a5c995960621b6044820152606490fd5b60405162461bcd60e51b815260206004820152601f60248201527f4475726174696f6e206d7573742062652067726561746572207468616e2030006044820152606490fd5b34610236575f366003190112610236575f546040516001600160a01b039091168152602090f35b34610236575f366003190112610236576020604051600a8152f35b34610236575f3660031901126102365761117b6122c3565b5f80546001600160a01b0319811682556001600160a01b03167f8be0079c531659141344cd1fd0a4f28419497f9722a3daafe3b4186f6b6457e08280a3005b34610236576040366003190112610236576004356111d661222f565b90805f52600360205260405f209160018060a01b0380911692835f5260205260405f20928354925f52600260205260405f2091600a83015416148061126d575b611246575b506104c460026001840154930154604051938493846040919493926060820195825260208201520152565b906104768260096112679401548042105f146104825750600b01544261239a565b8261121b565b5060ff600c8201541615611216565b346102365760403660031901126102365761129561222f565b6004355f52600360205260405f209060018060a01b03165f5260205260405f2080546104c460026001840154930154604051938493846040919493926060820195825260208201520152565b34610236575f366003190112610236576020600754604051908152f35b3461023657602080600319360112610236576004359061131c612377565b815f526002815260405f20916113356007548210612310565b600883015442106115d557600983015442101561159f5760ff600c8401541661156757600a830180546001600160a01b03908116949033861461152257835f526003855260405f20335f52855260405f20600181018054806114c3575b505f9388611487575b6002939495336bffffffffffffffffffffffff60a01b825416179055600b42910155429055016113cb81546122ee565b9055825f526005845260405f20335f52845260ff60405f20541615611422575b50604051924284528301527f3e356ee9071ea983e847cc7da7b8b224b8f44262f7c9ce77262ea0e854a5442c60403393a460018055005b825f526004845260405f20805468010000000000000000811015610d685761144f9160018201815561229a565b819291549060031b9133831b921b1916179055815f526005835260405f20335f52835260405f20600160ff19825416179055846113eb565b600293945061149a600b8201544261239a565b875f526003895260405f208a5f52895260405f206114b982825461236a565b905594935061139b565b600e8501546114d19161236a565b42106114dd5788611392565b60405162461bcd60e51b815260048101889052601b60248201527f436f6f6c646f776e20706572696f64206e6f7420656c617073656400000000006044820152606490fd5b60405162461bcd60e51b815260048101869052601a60248201527f596f752061726520616c72656164792074686520686f6c6465720000000000006044820152606490fd5b60405162461bcd60e51b815260048101839052601060248201526f11d85b59481a5cc8199a5b9a5cda195960821b6044820152606490fd5b60405162461bcd60e51b815260048101839052600e60248201526d11d85b59481a185cc8195b99195960921b6044820152606490fd5b60405162461bcd60e51b815260048101839052601860248201527f47616d6520686173206e6f7420737461727465642079657400000000000000006044820152606490fd5b346102365760208060031936011261023657600435611637612377565b805f526002825260405f2061164f6007548310612310565b60088101908154611813576003810180546001600160a01b03908116959192919086156117ce576004830193845480156117895782600586015416330361174c575f96979860648592604051998a9384926323b872dd60e01b845233600485015230602485015260448401525af1938415610817577f7fd98a22a16301af42661307edb78fff8f8a658989a24b5b04244021f813efee9760809760099661172f575b50429055885f526006845261170a60405f20544261236a565b948591015554169254906040519384528301524260408301526060820152a260018055005b61174590863d88116108105761080181836120c0565b508a6116f1565b60405162461bcd60e51b815260048101859052601560248201527413db9b1e481cdc1bdb9cdbdc8818d85b88199d5b99605a1b6044820152606490fd5b60405162461bcd60e51b815260048101859052601860248201527f47616d6520686173206e6f207072697a6520616d6f756e7400000000000000006044820152606490fd5b60405162461bcd60e51b815260048101839052601760248201527f47616d6520686173206e6f20746f6b656e207072697a650000000000000000006044820152606490fd5b60405162461bcd60e51b815260048101859052601b60248201527f47616d6520616c72656164792066756e6465642f7374617274656400000000006044820152606490fd5b34610236576020806003193601126102365760043590815f526002815260405f20916118876007548210612310565b600983015491824210611ae957600c8401926118a760ff855416156123a7565b600a8501546001600160a01b03919082169081611ab2575b50505f8095845f526004845260405f20916040518084878296549384815201905f52875f20925f5b89828210611a9a575050506118fe925003846120c0565b5f5b8351811015611950578461191482866123eb565b5116875f526003875260405f20815f52875260405f20548a8111611943575b505061193e906122ee565b611900565b9950915061193e8a611933565b5086546001600160a81b031916600882901b610100600160a81b0316176001179096559394905085600d85015560038401828154169081151580611a8d575b80611a82575b6119b7575b50505f8051602061244983398151915293506040519586521693a3005b6004958601805460405163a9059cbb60e01b81526001600160a01b038616988101989098526024880152918590879060449082905f905af190811561081757611a5b857f5a28f7f69afe229f92c7195829ae52541c6f4eeee5d4610d81b7abcdac51aa1e925f80516020612449833981519152998b95611a65575b5054945460408051929096166001600160a01b0316825260208201528686169490918291820190565b0390a3868061199a565b611a7b908a3d8c116108105761080181836120c0565b508c611a32565b508383161515611995565b506004860154151561198f565b85548a168452600195860195899550930192016118e7565b600b870154611ac09161239a565b90845f526003845260405f20905f528352611ae060405f2091825461236a565b905585806118bf565b6064906040519062461bcd60e51b82526004820152601660248201527511d85b59481a185cc81b9bdd08195b991959081e595d60521b6044820152fd5b34610236575f366003190112610236576007545f805b828110611bb05750611b4d90612416565b905f805b828110611b6e57604051602080825281906104c4908201876121fc565b805f52600260205260ff600c60405f2001541615611b95575b611b90906122ee565b611b51565b90611ba88183610447611b9094886123eb565b919050611b87565b805f52600260205260ff600c60405f2001541615611bd7575b611bd2906122ee565b611b3c565b90611be4611bd2916122ee565b919050611bc9565b34610236576020366003190112610236576004355f52600260205260405f206008810154600982015490600c83015460ff16600160a01b600190038060038601541660048601549160058701541692611c44876120e1565b95611c51600189016120e1565b97611c5e600282016120e1565b90611c6b600682016120e1565b90600701611c78906120e1565b916040519a8b9a610160808d528c01611c9091612182565b8b810360208d0152611ca191612182565b8a810360408c0152611cb291612182565b89810360608b0152611cc391612182565b88810360808a0152611cd491612182565b9560a088015260c0870152151560e08601526101008501526101208401526101408301520390f35b3461023657602080600319360112610236576004355f526004815260405f20906040518083838295549384815201905f52835f20925f5b85828210611d5e57505050611d4a925003836120c0565b6104c46040519282849384528301906121c0565b85546001600160a01b0316845260019586019588955093019201611d33565b34610236576020366003190112610236576004355f52600260205260405f20611da5816120e1565b611db1600183016120e1565b90611dbe600284016120e1565b60038401546004850154600586015492956001600160a01b0392831693909216611dea600684016120e1565b94611df7600785016120e1565b95600885015496600986015491600160a01b60019003600a8801541693600b88015495600c89015497600d8a015499600e01549a6040519e8f9e8f956102008088528701611e4491612182565b8681036020880152611e5591612182565b8581036040870152611e6691612182565b936060015260808d015260a08c01528a810360c08c0152611e8691612182565b89810360e08b0152611e9791612182565b61010089019790975261012088015261014087015261016086015260ff8116151561018086015260081c6001600160a01b03166101a08501526101c08401526101e08301520390f35b34610236576020806003193601126102365760043590611efe6122c3565b815f526002815260405f2091611f176007548210612310565b600c830191611f2a60ff845416156123a7565b600a8401546001600160a01b0390811680612052575b505f8095845f526004845260405f20916040518084878296549384815201905f52875f20925f5b8982821061203a57505050611f7e925003846120c0565b5f5b8351811015611fd05784611f9482866123eb565b5116875f526003875260405f20815f52875260405f20548a8111611fc3575b5050611fbe906122ee565b611f80565b99509150611fbe8a611fb3565b5086546001600160a81b031916600882901b610100600160a81b0316176001179096559394905085600d85015542600985015560038401828154169081151580611a8d5780611a82576119b75750505f8051602061244983398151915293506040519586521693a3005b85548a16845260019586019589955093019201611f67565b612060600b8701544261239a565b90845f526003845260405f20905f52835261208060405f2091825461236a565b905585611f40565b90600182811c921680156120b6575b60208310146120a257565b634e487b7160e01b5f52602260045260245ffd5b91607f1691612097565b90601f801991011681019081106001600160401b03821117610d6857604052565b9060405191825f8254926120f484612088565b9081845260019485811690815f1461215f575060011461211f575b505061211d925003836120c0565b565b909391505f52602090815f20935f915b81831061214757505061211d93508201015f8061210f565b8554888401850152948501948794509183019161212f565b91505061211d94506020925060ff191682840152151560051b8201015f8061210f565b91908251928382525f5b8481106121ac575050825f602080949584010152601f8019910116010190565b60208183018101518483018201520161218c565b9081518082526020808093019301915f5b8281106121df575050505090565b83516001600160a01b0316855293810193928101926001016121d1565b9081518082526020808093019301915f5b82811061221b575050505090565b83518552938101939281019260010161220d565b602435906001600160a01b038216820361023657565b81601f82011215610236578035906001600160401b038211610d685760405192612279601f8401601f1916602001856120c0565b8284526020838301011161023657815f926020809301838601378301015290565b80548210156122af575f5260205f2001905f90565b634e487b7160e01b5f52603260045260245ffd5b5f546001600160a01b031633036122d657565b60405163118cdaa760e01b8152336004820152602490fd5b5f1981146122fc5760010190565b634e487b7160e01b5f52601160045260245ffd5b1561231757565b60405162461bcd60e51b815260206004820152601360248201527211d85b5948191bd95cc81b9bdd08195e1a5cdd606a1b6044820152606490fd5b90816020910312610236575180151581036102365790565b919082018092116122fc57565b600260015414612388576002600155565b604051633ee5aeb560e01b8152600490fd5b919082039182116122fc57565b156123ae57565b60405162461bcd60e51b815260206004820152601560248201527411d85b5948185b1c9958591e48199a5b9a5cda1959605a1b6044820152606490fd5b80518210156122af5760209160051b010190565b6001600160401b038111610d685760051b60200190565b90612420826123ff565b61242d60405191826120c0565b828152809261243e601f19916123ff565b019060203691013756fef5d92df6ae1a0b46d0a0c57c2e1da0d75d7591d2804ad086cb1e27ba67de7aafa26469706673582212202cbd75b0920edf6a6787ccb7dd960d0e21afd4ea72d1e6b6290c36e45bcf77bd64736f6c63430008140033",
  "linkReferences": {},
  "deployedLinkReferences": {},
  "immutableReferences": {},
  "inputSourceName": "project/contracts/Grabli.sol",
  "buildInfoId": "solc-0_8_20-122db02192619e1fe8f7a8f70e448028046304f5"
}