{
  "_format": "hh3-artifact-1",
  "contractName": "Grabli",
  "sourceName": "contracts/Grabli.sol",
  "abi": [
    {
      "inputs": [],
      "stateMutability": "nonpayable",
      "type": "constructor"
    },
    {
      "inputs": [
        {
          "internalType": "address",
          "name": "owner",
          "type": "address"
        }
      ],
      "name": "OwnableInvalidOwner",
      "type": "error"
    },
    {
      "inputs": [
        {
          "internalType": "address",
          "name": "account",
          "type": "address"
        }
      ],
      "name": "OwnableUnauthorizedAccount",
      "type": "error"
    },
    {
      "inputs": [],
      "name": "ReentrancyGuardReentrantCall",
      "type": "error"
    },
    {
      "anonymous": false,
      "inputs": [
        {
          "indexed": true,
          "internalType": "uint256",
          "name": "gameId",
          "type": "uint256"
        },
        {
          "indexed": true,
          "internalType": "address",
          "name": "player",
          "type": "address"
        },
        {
          "indexed": true,
          "internalType": "address",
          "name": "previousHolder",
          "type": "address"
        },
        {
          "indexed": false,
          "internalType": "uint256",
          "name": "timestamp",
          "type": "uint256"
        },
        {
          "indexed": false,
          "internalType": "uint256",
          "name": "previousHolderSeconds",
          "type": "uint256"
        }
      ],
      "name": "Claimed",
      "type": "event"
    },
    {
      "anonymous": false,
      "inputs": [
        {
          "indexed": true,
          "internalType": "uint256",
          "name": "gameId",
          "type": "uint256"
        },
        {
          "indexed": false,
          "internalType": "string",
          "name": "prizeTitle",
          "type": "string"
        },
        {
          "indexed": false,
          "internalType": "address",
          "name": "prizeToken",
          "type": "address"
        },
        {
          "indexed": false,
          "internalType": "uint256",
          "name": "prizeAmount",
          "type": "uint256"
        },
        {
          "indexed": false,
          "internalType": "address",
          "name": "sponsor",
          "type": "address"
        }
      ],
      "name": "GameCreated",
      "type": "event"
    },
    {
      "anonymous": false,
      "inputs": [
        {
          "indexed": true,
          "internalType": "uint256",
          "name": "gameId",
          "type": "uint256"
        },
        {
          "indexed": true,
          "internalType": "address",
          "name": "winner",
          "type": "address"
        },
        {
          "indexed": false,
          "internalType": "uint256",
          "name": "totalSeconds",
          "type": "uint256"
        }
      ],
      "name": "GameFinished",
      "type": "event"
    },
    {
      "anonymous": false,
      "inputs": [
        {
          "indexed": true,
          "internalType": "uint256",
          "name": "gameId",
          "type": "uint256"
        },
        {
          "indexed": false,
          "internalType": "address",
          "name": "prizeToken",
          "type": "address"
        },
        {
          "indexed": false,
          "internalType": "uint256",
          "name": "prizeAmount",
          "type": "uint256"
        },
        {
          "indexed": false,
          "internalType": "uint256",
          "name": "startAt",
          "type": "uint256"
        },
        {
          "indexed": false,
          "internalType": "uint256",
          "name": "endAt",
          "type": "uint256"
        }
      ],
      "name": "GameFunded",
      "type": "event"
    },
    {
      "anonymous": false,
      "inputs": [
        {
          "indexed": true,
          "internalType": "address",
          "name": "previousOwner",
          "type": "address"
        },
        {
          "indexed": true,
          "internalType": "address",
          "name": "newOwner",
          "type": "address"
        }
      ],
      "name": "OwnershipTransferred",
      "type": "event"
    },
    {
      "anonymous": false,
      "inputs": [
        {
          "indexed": true,
          "internalType": "uint256",
          "name": "gameId",
          "type": "uint256"
        },
        {
          "indexed": true,
          "internalType": "address",
          "name": "winner",
          "type": "address"
        },
        {
          "indexed": false,
          "internalType": "address",
          "name": "prizeToken",
          "type": "address"
        },
        {
          "indexed": false,
          "internalType": "uint256",
          "name": "amount",
          "type": "uint256"
        }
      ],
      "name": "PrizeClaimed",
      "type": "event"
    },
    {
      "inputs": [],
      "name": "DEFAULT_COOLDOWN",
      "outputs": [
        {
          "internalType": "uint256",
          "name": "",
          "type": "uint256"
        }
      ],
      "stateMutability": "view",
      "type": "function"
    },
    {
      "inputs": [
        {
          "internalType": "uint256",
          "name": "_gameId",
          "type": "uint256"
        }
      ],
      "name": "claim",
      "outputs": [],
      "stateMutability": "nonpayable",
      "type": "function"
    },
    {
      "inputs": [
        {
          "internalType": "uint256",
          "name": "_gameId",
          "type": "uint256"
        }
      ],
      "name": "closeGame",
      "outputs": [],
      "stateMutability": "nonpayable",
      "type": "function"
    },
    {
      "inputs": [
        {
          "internalType": "string",
          "name": "_prizeTitle",
          "type": "string"
        },
        {
          "internalType": "uint256",
          "name": "_prizeValue",
          "type": "uint256"
        },
        {
          "internalType": "string",
          "name": "_prizeCurrency",
          "type": "string"
        },
        {
          "internalType": "string",
          "name": "_prizeDescription",
          "type": "string"
        },
        {
          "internalType": "address",
          "name": "_prizeToken",
          "type": "address"
        },
        {
          "internalType": "uint256",
          "name": "_prizeAmount",
          "type": "uint256"
        },
        {
          "internalType": "string",
          "name": "_sponsorName",
          "type": "string"
        },
        {
          "internalType": "string",
          "name": "_sponsorUrl",
          "type": "string"
        },
        {
          "internalType": "string",
          "name": "_sponsorLogo",
          "type": "string"
        },
        {
          "internalType": "uint256",
          "name": "_duration",
          "type": "uint256"
        },
        {
          "internalType": "uint256",
          "name": "_claimCooldown",
          "type": "uint256"
        }
      ],
      "name": "createGame",
      "outputs": [
        {
          "internalType": "uint256",
          "name": "",
          "type": "uint256"
        }
      ],
      "stateMutability": "nonpayable",
      "type": "function"
    },
    {
      "inputs": [
        {
          "internalType": "uint256",
          "name": "_gameId",
          "type": "uint256"
        }
      ],
      "name": "forceCloseGame",
      "outputs": [],
      "stateMutability": "nonpayable",
      "type": "function"
    },
    {
      "inputs": [
        {
          "internalType": "uint256",
          "name": "_gameId",
          "type": "uint256"
        }
      ],
      "name": "fundGame",
      "outputs": [],
      "stateMutability": "nonpayable",
      "type": "function"
    },
    {
      "inputs": [],
      "name": "gameCount",
      "outputs": [
        {
          "internalType": "uint256",
          "name": "",
          "type": "uint256"
        }
      ],
      "stateMutability": "view",
      "type": "function"
    },
    {
      "inputs": [
        {
          "internalType": "uint256",
          "name": "",
          "type": "uint256"
        }
      ],
      "name": "gameDuration",
      "outputs": [
        {
          "internalType": "uint256",
          "name": "",
          "type": "uint256"
        }
      ],
      "stateMutability": "view",
      "type": "function"
    },
    {
      "inputs": [
        {
          "internalType": "uint256",
          "name": "",
          "type": "uint256"
        },
        {
          "internalType": "uint256",
          "name": "",
          "type": "uint256"
        }
      ],
      "name": "gamePlayers",
      "outputs": [
        {
          "internalType": "address",
          "name": "",
          "type": "address"
        }
      ],
      "stateMutability": "view",
      "type": "function"
    },
    {
      "inputs": [
        {
          "internalType": "uint256",
          "name": "",
          "type": "uint256"
        }
      ],
      "name": "games",
      "outputs": [
        {
          "internalType": "string",
          "name": "prizeTitle",
          "type": "string"
        },
        {
          "internalType": "uint256",
          "name": "prizeValue",
          "type": "uint256"
        },
        {
          "internalType": "string",
          "name": "prizeCurrency",
          "type": "string"
        },
        {
          "internalType": "string",
          "name": "prizeDescription",
          "type": "string"
        },
        {
          "internalType": "address",
          "name": "prizeToken",
          "type": "address"
        },
        {
          "internalType": "uint256",
          "name": "prizeAmount",
          "type": "uint256"
        },
        {
          "internalType": "address",
          "name": "sponsor",
          "type": "address"
        },
        {
          "internalType": "string",
          "name": "sponsorName",
          "type": "string"
        },
        {
          "internalType": "string",
          "name": "sponsorUrl",
          "type": "string"
        },
        {
          "internalType": "string",
          "name": "sponsorLogo",
          "type": "string"
        },
        {
          "internalType": "uint256",
          "name": "startAt",
          "type": "uint256"
        },
        {
          "internalType": "uint256",
          "name": "endAt",
          "type": "uint256"
        },
        {
          "internalType": "address",
          "name": "holder",
          "type": "address"
        },
        {
          "internalType": "uint256",
          "name": "sinceTs",
          "type": "uint256"
        },
        {
          "internalType": "bool",
          "name": "finished",
          "type": "bool"
        },
        {
          "internalType": "address",
          "name": "winner",
          "type": "address"
        },
        {
          "internalType": "uint256",
          "name": "winnerTotalSeconds",
          "type": "uint256"
        },
        {
          "internalType": "uint256",
          "name": "claimCooldown",
          "type": "uint256"
        }
      ],
      "stateMutability": "view",
      "type": "function"
    },
    {
      "inputs": [],
      "name": "getActiveGames",
      "outputs": [
        {
          "internalType": "uint256[]",
          "name": "",
          "type": "uint256[]"
        }
      ],
      "stateMutability": "view",
      "type": "function"
    },
    {
      "inputs": [
        {
          "internalType": "uint256",
          "name": "_gameId",
          "type": "uint256"
        }
      ],
      "name": "getGameDetails",
      "outputs": [
        {
          "internalType": "string",
          "name": "prizeTitle",
          "type": "string"
        },
        {
          "internalType": "uint256",
          "name": "prizeValue",
          "type": "uint256"
        },
        {
          "internalType": "string",
          "name": "prizeCurrency",
          "type": "string"
        },
        {
          "internalType": "string",
          "name": "prizeDescription",
          "type": "string"
        },
        {
          "internalType": "string",
          "name": "sponsorName",
          "type": "string"
        },
        {
          "internalType": "string",
          "name": "sponsorUrl",
          "type": "string"
        },
        {
          "internalType": "string",
          "name": "sponsorLogo",
          "type": "string"
        },
        {
          "internalType": "uint256",
          "name": "startAt",
          "type": "uint256"
        },
        {
          "internalType": "uint256",
          "name": "endAt",
          "type": "uint256"
        },
        {
          "internalType": "bool",
          "name": "finished",
          "type": "bool"
        },
        {
          "internalType": "address",
          "name": "prizeToken",
          "type": "address"
        },
        {
          "internalType": "uint256",
          "name": "prizeAmount",
          "type": "uint256"
        },
        {
          "internalType": "address",
          "name": "sponsor",
          "type": "address"
        }
      ],
      "stateMutability": "view",
      "type": "function"
    },
    {
      "inputs": [
        {
          "internalType": "uint256",
          "name": "_gameId",
          "type": "uint256"
        }
      ],
      "name": "getGamePlayers",
      "outputs": [
        {
          "internalType": "address[]",
          "name": "",
          "type": "address[]"
        }
      ],
      "stateMutability": "view",
      "type": "function"
    },
    {
      "inputs": [
        {
          "internalType": "uint256",
          "name": "_gameId",
          "type": "uint256"
        }
      ],
      "name": "getGameState",
      "outputs": [
        {
          "internalType": "string",
          "name": "prizeTitle",
          "type": "string"
        },
        {
          "internalType": "uint256",
          "name": "prizeValue",
          "type": "uint256"
        },
        {
          "internalType": "string",
          "name": "prizeCurrency",
          "type": "string"
        },
        {
          "internalType": "string",
          "name": "sponsorName",
          "type": "string"
        },
        {
          "internalType": "uint256",
          "name": "startAt",
          "type": "uint256"
        },
        {
          "internalType": "uint256",
          "name": "endAt",
          "type": "uint256"
        },
        {
          "internalType": "address",
          "name": "holder",
          "type": "address"
        },
        {
          "internalType": "uint256",
          "name": "currentHolderSeconds",
          "type": "uint256"
        },
        {
          "internalType": "bool",
          "name": "finished",
          "type": "bool"
        },
        {
          "internalType": "address",
          "name": "winner",
          "type": "address"
        },
        {
          "internalType": "address",
          "name": "prizeToken",
          "type": "address"
        },
        {
          "internalType": "uint256",
          "name": "prizeAmount",
          "type": "uint256"
        }
      ],
      "stateMutability": "view",
      "type": "function"
    },
    {
      "inputs": [
        {
          "internalType": "uint256",
          "name": "_gameId",
          "type": "uint256"
        }
      ],
      "name": "getLeaderboard",
      "outputs": [
        {
          "internalType": "address[]",
          "name": "players",
          "type": "address[]"
        },
        {
          "internalType": "uint256[]",
          "name": "totalSeconds",
          "type": "uint256[]"
        }
      ],
      "stateMutability": "view",
      "type": "function"
    },
    {
      "inputs": [
        {
          "internalType": "uint256",
          "name": "_gameId",
          "type": "uint256"
        },
        {
          "internalType": "address",
          "name": "_player",
          "type": "address"
        }
      ],
      "name": "getPlayerStats",
      "outputs": [
        {
          "internalType": "uint256",
          "name": "totalSeconds",
          "type": "uint256"
        },
        {
          "internalType": "uint256",
          "name": "lastClaimTs",
          "type": "uint256"
        },
        {
          "internalType": "uint256",
          "name": "claimCount",
          "type": "uint256"
        }
      ],
      "stateMutability": "view",
      "type": "function"
    },
    {
      "inputs": [
        {
          "internalType": "uint256",
          "name": "",
          "type": "uint256"
        },
        {
          "internalType": "address",
          "name": "",
          "type": "address"
        }
      ],
      "name": "hasPlayed",
      "outputs": [
        {
          "internalType": "bool",
          "name": "",
          "type": "bool"
        }
      ],
      "stateMutability": "view",
      "type": "function"
    },
    {
      "inputs": [],
      "name": "owner",
      "outputs": [
        {
          "internalType": "address",
          "name": "",
          "type": "address"
        }
      ],
      "stateMutability": "view",
      "type": "function"
    },
    {
      "inputs": [
        {
          "internalType": "uint256",
          "name": "",
          "type": "uint256"
        },
        {
          "internalType": "address",
          "name": "",
          "type": "address"
        }
      ],
      "name": "playerStats",
      "outputs": [
        {
          "internalType": "uint256",
          "name": "totalSeconds",
          "type": "uint256"
        },
        {
          "internalType": "uint256",
          "name": "lastClaimTs",
          "type": "uint256"
        },
        {
          "internalType": "uint256",
          "name": "claimCount",
          "type": "uint256"
        }
      ],
      "stateMutability": "view",
      "type": "function"
    },
    {
      "inputs": [],
      "name": "renounceOwnership",
      "outputs": [],
      "stateMutability": "nonpayable",
      "type": "function"
    },
    {
      "inputs": [
        {
          "internalType": "address",
          "name": "newOwner",
          "type": "address"
        }
      ],
      "name": "transferOwnership",
      "outputs": [],
      "stateMutability": "nonpayable",
      "type": "function"
    }
  ],
  "bytecode": "0x6080806040523461007c573315610067575f8054336001600160a01b03198216811783556040519290916001600160a01b0316907f8be0079c531659141344cd1fd0a4f28419497f9722a3daafe3b4186f6b6457e09080a36001805561269890816100818239f35b631e4fbdf760e01b81525f6004820152602490fd5b5f80fdfe6101006040526004361015610012575f80fd5b5f3560e01c80630ba76d5f146120da578063117a5b9014611f2257806315a40f4914611ea15780631b31abda14611d645780631b76929c14611c9e5780632d6ef310146119cc5780632e55a7671461178e578063379607f5146114725780634d1975b41461145557806351af1b7a146113f057806366ccf9591461132e578063715018a6146112d7578063827059ff146112bc5780638da5cb5b146112955780639fe49fde146104f4578063a34b46fe14610396578063d82ceb881461034d578063dfefef9f146102fd578063f2fde38b14610271578063f41fb129146102475763ffde0c7414610101575f80fd5b34610243576020366003190112610243576004355f908152600260205260408120600c8101546001600160a01b039081169283151580610234575b610206575b600183015493600a84015492600b85015492600e860154908260048801541693600588015495610170896122db565b9861017d600282016122db565b9060070161018a906122db565b906040519b8c9b8c6101808091528d016101a39161237c565b9060208d01528b810360408d01526101ba9161237c565b8a810360608c01526101cb9161237c565b9760808a015260a089015260c088015260e087015260ff8116151561010087015260081c166101208501526101408401526101608301520390f35b50600b8201548042105f1461022b5750610226425b600d84015490612594565b610141565b6102269061021b565b5060ff600e840154161561013c565b5f80fd5b34610243576020366003190112610243576004355f526006602052602060405f2054604051908152f35b34610243576020366003190112610243576004356001600160a01b0381811691829003610243576102a06124bd565b81156102e5575f54826bffffffffffffffffffffffff60a01b8216175f55167f8be0079c531659141344cd1fd0a4f28419497f9722a3daafe3b4186f6b6457e05f80a3005b604051631e4fbdf760e01b81525f6004820152602490fd5b34610243576040366003190112610243576024356004355f52600460205260405f2080548210156102435760209161033491612494565b905460405160039290921b1c6001600160a01b03168152f35b3461024357604036600319011261024357610366612429565b6004355f52600560205260405f209060018060a01b03165f52602052602060ff60405f2054166040519015158152f35b346102435760208060031936011261024357600435805f526004825260405f20906040518083858295549384815201905f52855f20925f5b878282106104d5575050506103e5925003836122ba565b6103ef8251612610565b905f5b83518110156104a75761045a906001600160a01b038061041283886125e5565b511690845f526003885260405f20825f52885260405f205491855f526002895260405f2091600c830154161480610498575b61045f575b5061045482866125e5565b526124e8565b6103f2565b9061048382600b6104899401548042105f1461048f5750600d42915b015490612594565b90612564565b87610449565b600d909161047b565b5060ff600e8201541615610444565b6104c4846104d187866040519485946040865260408601906123ba565b91848303908501526123f6565b0390f35b85546001600160a01b03168452600195860195889550930192016103ce565b3461024357610160366003190112610243576004356001600160401b0381116102435761052590369060040161243f565b6044356001600160401b0381116102435761054490369060040161243f565b906064356001600160401b0381116102435761056490369060040161243f565b916084356001600160a01b03811681036102435760c4356001600160401b0381116102435761059790369060040161243f565b9160e4356001600160401b038111610243576105b790369060040161243f565b94610104356001600160401b038111610243576105d890369060040161243f565b6105e06124bd565b61012435156112505785511561121457865f969496945b6007548610156108e457855f52600260205260405f209660ff600e890154166108d257600c8801546001600160a01b03168061089a575b505f985f96885f52600460205260405f209660405180988991602082549182815201915f5260205f20905f905b80821061087857505050906106719103896122ba565b5f5b88518110156106cd576001600160a01b0361068e828b6125e5565b51168b5f52600360205260405f20815f5260205260405f20548b81116106bf575b50506106ba906124e8565b610673565b909d5099506106ba8e6106af565b50600e8b0180546001600160a81b03191660088e901b610100600160a81b0316176001179055949a9399929891979096509394939091600f810182905542600b82015560048101546001600160a01b03168015158061086b575b80610859575b61076f575b5050604051908152610762926001600160a01b03169082905f8051602061264383398151915290602090a36124e8565b94959690919293966105f7565b600582015460405163a9059cbb60e01b81526001600160a01b0387166004820152602481019190915290602090829060449082905f905af1801561084e576107629585935f8051602061264383398151915293602093610821575b506004810154600590910154604080516001600160a01b03938416815260208101929092529183169186917f5a28f7f69afe229f92c7195829ae52541c6f4eeee5d4610d81b7abcdac51aa1e9190a3955050610732565b61084090843d8611610847575b61083881836122ba565b81019061254c565b508f6107ca565b503d61082e565b6040513d5f823e3d90fd5b506001600160a01b038516151561072d565b5060058201541515610727565b82546001600160a01b031684526020909301926001928301929091019061065b565b6108a8600d8a015442612594565b90885f52600360205260405f20905f526020526108ca60405f20918254612564565b90558961062e565b956107629197509794939291976124e8565b969450600754956108f4876124e8565b60075561014435801561120b57935b60405195866102408101106001600160401b0361024089011117610e1957610240870160405289875260243560208801526040870152606086015260018060a01b038616608086015260a43560a08601523360c086015260e08501526101008401526101208301525f6101408301525f6101608301525f6101808301525f6101a08301525f6101c08301525f6101e08301525f610200830152610220820152825f52600260205260405f209080518051906001600160401b038211610e195781906109ce8554612282565b601f81116111be575b50602090601f8311600114611156575f9261114b575b50508160011b915f199060031b1c19161782555b6020810151600183015560408101518051906001600160401b038211610e19578190610a306002860154612282565b601f81116110fb575b50602090601f831160011461108d575f92611082575b50508160011b915f199060031b1c19161760028301555b60608101518051906001600160401b038211610e19578190610a8b6003860154612282565b601f8111611032575b50602090601f8311600114610fc4575f92610fb9575b50508160011b915f199060031b1c19161760038301555b60808101516004830180546001600160a01b039283166001600160a01b03199182161790915560a0830151600585015560c083015160068501805491909316911617905560e08101518051906001600160401b038211610e19578190610b2a6007860154612282565b601f8111610f69575b50602090601f8311600114610efe575f92610ef3575b50508160011b915f199060031b1c19161760078301555b6101008101518051906001600160401b038211610e19578190610b866008860154612282565b601f8111610ea3575b50602090601f8311600114610e38575f92610e2d575b50508160011b915f199060031b1c19161760088301555b6101208101518051906001600160401b038211610e1957610be06009850154612282565b601f8111610dd5575b509160209693918695938890601f8311600114610d3b57610d089593837fbdc387c285ce6946f2bfa6c8951f07ac72352a0c578839b050df5a85afddf341989694601094610220945f92610d30575b50508160011b915f199060031b1c19161760098501555b610140810151600a850155610160810151600b850155610180810151600c850180546001600160a01b039092166001600160a01b03199092169190911790556101a0810151600d8501556101c0810151600e850180546101e0840151610100600160a81b0360089190911b1692151560ff166001600160a81b031990911617919091179055610200810151600f8501550151910155845f52600687526101243560405f205560405192839260808452608084019061237c565b6001600160a01b039091168288015260a43560408301523360608301520390a2604051908152f35b015190508d80610c38565b90600985015f52895f20915f5b601f1985168110610dbb57509360018460109461022094610d089a987fbdc387c285ce6946f2bfa6c8951f07ac72352a0c578839b050df5a85afddf3419c9a98601f19811610610da3575b505050811b016009850155610c4f565b01515f1960f88460031b161c191690558d8080610d93565b8183015184558a9950600190930192918b01918b01610d48565b600985015f5260205f20601f840160051c810160208510610e12575b601f830160051c82018110610e07575050610be9565b5f8155600101610df1565b5080610df1565b634e487b7160e01b5f52604160045260245ffd5b015190508780610ba5565b600886015f908152602081209350601f198516905b818110610e8b5750908460019594939210610e73575b505050811b016008830155610bbc565b01515f1960f88460031b161c19169055878080610e63565b92936020600181928786015181550195019301610e4d565b909150600885015f5260205f20601f840160051c810160208510610eec575b90849392915b601f830160051c82018110610ede575050610b8f565b5f8155859450600101610ec8565b5080610ec2565b015190508780610b49565b600786015f908152602081209350601f198516905b818110610f515750908460019594939210610f39575b505050811b016007830155610b60565b01515f1960f88460031b161c19169055878080610f29565b92936020600181928786015181550195019301610f13565b909150600785015f5260205f20601f840160051c810160208510610fb2575b90849392915b601f830160051c82018110610fa4575050610b33565b5f8155859450600101610f8e565b5080610f88565b015190508780610aaa565b9250600385015f5260205f20905f935b601f1984168510611017576001945083601f19811610610fff575b505050811b016003830155610ac1565b01515f1960f88460031b161c19169055878080610fef565b81810151835560209485019460019093019290910190610fd4565b909150600385015f5260205f20601f840160051c81016020851061107b575b90849392915b601f830160051c8201811061106d575050610a94565b5f8155859450600101611057565b5080611051565b015190508780610a4f565b9250600285015f5260205f20905f935b601f19841685106110e0576001945083601f198116106110c8575b505050811b016002830155610a66565b01515f1960f88460031b161c191690558780806110b8565b8181015183556020948501946001909301929091019061109d565b909150600285015f5260205f20601f840160051c810160208510611144575b90849392915b601f830160051c82018110611136575050610a39565b5f8155859450600101611120565b508061111a565b0151905087806109ed565b9250845f5260205f20905f935b601f19841685106111a3576001945083601f1981161061118b575b505050811b018255610a01565b01515f1960f88460031b161c1916905587808061117e565b81810151835560209485019460019093019290910190611163565b909150845f5260205f20601f840160051c810160208510611204575b90849392915b601f830160051c820181106111f65750506109d7565b5f81558594506001016111e0565b50806111da565b50600a93610903565b60405162461bcd60e51b8152602060048201526014602482015273141c9a5e99481d1a5d1b19481c995c5d5a5c995960621b6044820152606490fd5b60405162461bcd60e51b815260206004820152601f60248201527f4475726174696f6e206d7573742062652067726561746572207468616e2030006044820152606490fd5b34610243575f366003190112610243575f546040516001600160a01b039091168152602090f35b34610243575f366003190112610243576020604051600a8152f35b34610243575f366003190112610243576112ef6124bd565b5f80546001600160a01b0319811682556001600160a01b03167f8be0079c531659141344cd1fd0a4f28419497f9722a3daafe3b4186f6b6457e08280a3005b346102435760403660031901126102435760043561134a612429565b90805f52600360205260405f209160018060a01b0380911692835f5260205260405f20928354925f52600260205260405f2091600c8301541614806113e1575b6113ba575b506104d160026001840154930154604051938493846040919493926060820195825260208201520152565b9061048382600b6113db9401548042105f1461048f5750600d015442612594565b8261138f565b5060ff600e820154161561138a565b3461024357604036600319011261024357611409612429565b6004355f52600360205260405f209060018060a01b03165f5260205260405f2080546104d160026001840154930154604051938493846040919493926060820195825260208201520152565b34610243575f366003190112610243576020600754604051908152f35b34610243576020806003193601126102435760043590611490612571565b815f526002815260405f20916114a9600754821061250a565b600a830154421061174957600b8301544210156117135760ff600e840154166116db57600c830180546001600160a01b03908116949033861461169657835f526003855260405f20335f52855260405f2060018101805480611637575b505f93886115fb575b6002939495336bffffffffffffffffffffffff60a01b825416179055600d429101554290550161153f81546124e8565b9055825f526005845260405f20335f52845260ff60405f20541615611596575b50604051924284528301527f3e356ee9071ea983e847cc7da7b8b224b8f44262f7c9ce77262ea0e854a5442c60403393a460018055005b825f526004845260405f20805468010000000000000000811015610e19576115c391600182018155612494565b819291549060031b9133831b921b1916179055815f526005835260405f20335f52835260405f20600160ff198254161790558461155f565b600293945061160e600d82015442612594565b875f526003895260405f208a5f52895260405f2061162d828254612564565b905594935061150f565b601085015461164591612564565b42106116515788611506565b60405162461bcd60e51b815260048101889052601b60248201527f436f6f6c646f776e20706572696f64206e6f7420656c617073656400000000006044820152606490fd5b60405162461bcd60e51b815260048101869052601a60248201527f596f752061726520616c72656164792074686520686f6c6465720000000000006044820152606490fd5b60405162461bcd60e51b815260048101839052601060248201526f11d85b59481a5cc8199a5b9a5cda195960821b6044820152606490fd5b60405162461bcd60e51b815260048101839052600e60248201526d11d85b59481a185cc8195b99195960921b6044820152606490fd5b60405162461bcd60e51b815260048101839052601860248201527f47616d6520686173206e6f7420737461727465642079657400000000000000006044820152606490fd5b3461024357602080600319360112610243576004356117ab612571565b805f526002825260405f206117c3600754831061250a565b600a8101908154611987576004810180546001600160a01b0390811695919291908615611942576005830193845480156118fd578260068601541633036118c0575f96979860648592604051998a9384926323b872dd60e01b845233600485015230602485015260448401525af193841561084e577f7fd98a22a16301af42661307edb78fff8f8a658989a24b5b04244021f813efee97608097600b966118a3575b50429055885f526006845261187e60405f205442612564565b948591015554169254906040519384528301524260408301526060820152a260018055005b6118b990863d88116108475761083881836122ba565b508a611865565b60405162461bcd60e51b815260048101859052601560248201527413db9b1e481cdc1bdb9cdbdc8818d85b88199d5b99605a1b6044820152606490fd5b60405162461bcd60e51b815260048101859052601860248201527f47616d6520686173206e6f207072697a6520616d6f756e7400000000000000006044820152606490fd5b60405162461bcd60e51b815260048101839052601760248201527f47616d6520686173206e6f20746f6b656e207072697a650000000000000000006044820152606490fd5b60405162461bcd60e51b815260048101859052601b60248201527f47616d6520616c72656164792066756e6465642f7374617274656400000000006044820152606490fd5b34610243576020806003193601126102435760043590815f526002815260405f20916119fb600754821061250a565b600b83015491824210611c6157600e840192611a1b60ff855416156125a1565b600c8501546001600160a01b03919082169081611c2a575b50505f8095845f526004845260405f20916040518084878296549384815201905f52875f20925f5b89828210611c1257505050611a72925003846122ba565b5f5b8351811015611ac45784611a8882866125e5565b5116875f526003875260405f20815f52875260405f20548a8111611ab7575b5050611ab2906124e8565b611a74565b99509150611ab28a611aa7565b5086546001600160a81b031916600882901b610100600160a81b0316176001179096559394905085600f85015560048401828154169081151580611c05575b80611bfa575b611b2b575b50505f8051602061264383398151915293506040519586521693a3005b600595909501805460405163a9059cbb60e01b81526001600160a01b038516600482015260248101919091529590918590879060449082905f905af190811561084e57611bd3857f5a28f7f69afe229f92c7195829ae52541c6f4eeee5d4610d81b7abcdac51aa1e925f80516020612643833981519152998b95611bdd575b5054945460408051929096166001600160a01b0316825260208201528686169490918291820190565b0390a38680611b0e565b611bf3908a3d8c116108475761083881836122ba565b508c611baa565b508383161515611b09565b5060058601541515611b03565b85548a16845260019586019589955093019201611a5b565b600d870154611c3891612594565b90845f526003845260405f20905f528352611c5860405f20918254612564565b90558580611a33565b6064906040519062461bcd60e51b82526004820152601660248201527511d85b59481a185cc81b9bdd08195b991959081e595d60521b6044820152fd5b34610243575f366003190112610243576007545f805b828110611d285750611cc590612610565b905f805b828110611ce657604051602080825281906104d1908201876123f6565b805f52600260205260ff600e60405f2001541615611d0d575b611d08906124e8565b611cc9565b90611d208183610454611d0894886125e5565b919050611cff565b805f52600260205260ff600e60405f2001541615611d4f575b611d4a906124e8565b611cb4565b90611d5c611d4a916124e8565b919050611d41565b34610243576020366003190112610243576004355f52600260205260405f20600181015490600a810154600b820154600e83015460ff16600160a01b6001900390816004860154169060058601549260068701541693611dc3876122db565b96611dd0600282016122db565b90611ddd600382016122db565b611de9600783016122db565b90611df6600884016122db565b92600901611e03906122db565b93604051809d819d6101a08084528301611e1c9161237c565b91602001528c8082039060400152611e339161237c565b8b810360608d0152611e449161237c565b8a810360808c0152611e559161237c565b89810360a08b0152611e669161237c565b88810360c08a0152611e779161237c565b9560e088015261010087015215156101208601526101408501526101608401526101808301520390f35b3461024357602080600319360112610243576004355f526004815260405f20906040518083838295549384815201905f52835f20925f5b85828210611f0357505050611eef925003836122ba565b6104d16040519282849384528301906123ba565b85546001600160a01b0316845260019586019588955093019201611ed8565b34610243576020366003190112610243576004355f52600260205260405f20611f4a816122db565b600182015460a052611f5e600283016122db565b608052611f6d600383016122db565b6004830154600584015460068501546001600160a01b03928316959391908316611f99600786016122db565b611fa5600887016122db565b611fb1600988016122db565b91600a88015460c052600b8801549987600c8a01541694600d8a015496600e8b015498600f8c01549b601001549c6040518060e05261024080915260e05101611ff99161237c565b60a05160e0516020015260e05180820390604001526080519061201b9161237c565b60e051808203906060015261202f9161237c565b9260e0516080015260e05160a0015260e05160c0015260e0518082039060e001526120599161237c565b60e05180820390610100015261206e9161237c565b60e0518082039061012001526120839161237c565b9660c05160e051610140015260e051610160015260e051610180015260e0516101a0015260ff8116151560e0516101c0015260081c1660e0516101e0015260e051610200015260e051610220015260e05180910390f35b346102435760208060031936011261024357600435906120f86124bd565b815f526002815260405f2091612111600754821061250a565b600e83019161212460ff845416156125a1565b600c8401546001600160a01b039081168061224c575b505f8095845f526004845260405f20916040518084878296549384815201905f52875f20925f5b8982821061223457505050612178925003846122ba565b5f5b83518110156121ca578461218e82866125e5565b5116875f526003875260405f20815f52875260405f20548a81116121bd575b50506121b8906124e8565b61217a565b995091506121b88a6121ad565b5086546001600160a81b031916600882901b610100600160a81b0316176001179096559394905085600f85015542600b85015560048401828154169081151580611c055780611bfa57611b2b5750505f8051602061264383398151915293506040519586521693a3005b85548a16845260019586019589955093019201612161565b61225a600d87015442612594565b90845f526003845260405f20905f52835261227a60405f20918254612564565b90558561213a565b90600182811c921680156122b0575b602083101461229c57565b634e487b7160e01b5f52602260045260245ffd5b91607f1691612291565b90601f801991011681019081106001600160401b03821117610e1957604052565b9060405191825f8254926122ee84612282565b9081845260019485811690815f146123595750600114612319575b5050612317925003836122ba565b565b909391505f52602090815f20935f915b81831061234157505061231793508201015f80612309565b85548884018501529485019487945091830191612329565b91505061231794506020925060ff191682840152151560051b8201015f80612309565b91908251928382525f5b8481106123a6575050825f602080949584010152601f8019910116010190565b602081830181015184830182015201612386565b9081518082526020808093019301915f5b8281106123d9575050505090565b83516001600160a01b0316855293810193928101926001016123cb565b9081518082526020808093019301915f5b828110612415575050505090565b835185529381019392810192600101612407565b602435906001600160a01b038216820361024357565b81601f82011215610243578035906001600160401b038211610e195760405192612473601f8401601f1916602001856122ba565b8284526020838301011161024357815f926020809301838601378301015290565b80548210156124a9575f5260205f2001905f90565b634e487b7160e01b5f52603260045260245ffd5b5f546001600160a01b031633036124d057565b60405163118cdaa760e01b8152336004820152602490fd5b5f1981146124f65760010190565b634e487b7160e01b5f52601160045260245ffd5b1561251157565b60405162461bcd60e51b815260206004820152601360248201527211d85b5948191bd95cc81b9bdd08195e1a5cdd606a1b6044820152606490fd5b90816020910312610243575180151581036102435790565b919082018092116124f657565b600260015414612582576002600155565b604051633ee5aeb560e01b8152600490fd5b919082039182116124f657565b156125a857565b60405162461bcd60e51b815260206004820152601560248201527411d85b5948185b1c9958591e48199a5b9a5cda1959605a1b6044820152606490fd5b80518210156124a95760209160051b010190565b6001600160401b038111610e195760051b60200190565b9061261a826125f9565b61262760405191826122ba565b8281528092612638601f19916125f9565b019060203691013756fef5d92df6ae1a0b46d0a0c57c2e1da0d75d7591d2804ad086cb1e27ba67de7aafa2646970667358221220d57265a0d65e9c8b56ce052fcc6290a9aee07e5a1351a6eb67b93e9458ea7f2a64736f6c63430008140033",
  "linkReferences": {},
  "deployedLinkReferences": {},
  "immutableReferences": {},
  "inputSourceName": "project/contracts/Grabli.sol",
  "buildInfoId": "solc-0_8_20-41a2659f05ca9745bfacae0cf3a58992f3f2fb5e"
}